:100000000C94211B0C94521B0C94521B0C94521BED
:100010000C94521B0C94521B0C94521B0C94521BAC
:100020000C94521B0C94521B0C94521B0C94521B9C
:100030000C94521B0C9462E90C94521B0C94521BAE
:100040000C94521B0C9402C00C94521B0C94521B27
:100050000C94521B0C94521B0C94E9AD0C94DCECE8
:100060000C94521B0C9401820C94521B0C94521B46
:100070000C94521B0C94521B0C94521B0C94521B4C
:100080000C9428C20C94521B0C94521B0C94521BBF
:100090000C94521B0C94521B0C94521B0C94521B2C
:1000A0000C94521B0C94521B0C94FAC10C94521BCE
:1000B0000C94521B0C94521B0C94521B0C94CCC1EC
:1000C0000C94521B0C94521B0C94521B0C94521BFC
:1000D0000C94521B0C94521B0C94521B0C94521BEC
:1000E0000C94521B0D9430020D9482010D94DE028B
:1000F0000D9435030D9487020D94C30C0D94EA0AF8
:100100000D94C2030D94D3040D94D9010D941904D8
:100110000D946B034E414E494E495459494E46CDBC
:10012000CCCC3D0AD7233C17B7D13877CC2B3295AE
:1001300095E6241FB14F0A000020410000C842008C
:10014000401C4620BCBE4CCA1B0E5AAEC59D740056
:10015000407A10F35A00A0724E18090010A5D4E896
:100160000000E87648170000E40B54020000CA9A29
:100170003B000000E1F5050000809698000000407B
:10018000420F000000A086010000001027000000C0
:1001900000E803000000006400000000000A000006
:1001A0000000000100000000002C76D888DC674FBA
:1001B0000823DFC1DFAE59E1B1B796E5E3E453C6EA
:1001C0003AE651997696E8E6C28426EB898C9B62E2
:1001D000ED407C6FFCEFBC9C9F40F2BAA56FA5F48C
:1001E00090055A2AF75C936B6CF9676DC11BFCE0B4
:1001F000E40D47FEF520E6B500D0ED902E03009407
:100200003577050080841E080000204E0A0000009B
:10021000C80C333333330F986E12831141EF8D21A5
:1002200014893BE65516CFFEE6DB18D1844B381B0C
:10023000F77C1D901DA4BBE424203284725E2281D1
:1002400000C9F124ECA1E53D27434F4D4D554E49E2
:10025000434154494F4E0044525952554E00455265
:10026000524F525300494E464F004543484F006598
:100270006E7175657565696E6720220020496E761E
:10028000616C696420657874727564657220000021
:1002900000000000000000000000000000C8430053
:1002A00000C8430000C84342696C696E65617220F2
:1002B0004C6576656C696E6720477269643A0A001E
:1002C000486F6D696E67206661696C6564002028FF
:1002D00044525952554E2900473239204175746FA6
:1002E00020426564204C6576656C696E67003F202E
:1002F000284C2C522C462C4229206F7574206F6696
:1003000020626F756E64732E0A003F28562965724D
:10031000626F7365206C6576656C20697320696D0A
:10032000706C61757369626C652028302D34292EDC
:100330000A00426164205A2076616C75650A004E9D
:100340006F2062696C696E65617220677269640A08
:100350000050726F7465637465642050696E0A00A2
:1003600020573A004520436F6F6C696E672E2E2E22
:1003700000452048656174696E672E2E2E00205757
:100380003A0042656420636F6F6C696E672E2E2E93
:10039000004265642068656174696E672E2E2E00C8
:1003A000205A3A0020593A0020436F756E74205845
:1003B0003A0020453A00205A3A0020593A00583A6B
:1003C000003A004361703A00205A0020590058005A
:1003D00020204D61783A2000205A00205900580012
:1003E00020204D696E3A20004F6E20004F66660057
:1003F000536F667420656E6473746F70733A200077
:100400004B64200023646566696E6520444546415F
:10041000554C545F004B69200023646566696E6526
:100420002044454641554C545F004B7020002364E6
:100430006566696E652044454641554C545F0050E1
:100440004944204175746F74756E652066696E69E4
:1004500073686564212050757420746865206C6130
:100460007374204B702C204B6920616E64204B64A8
:1004700020636F6E7374616E74732066726F6D208B
:1004800062656C6F7720696E746F20436F6E66696A
:100490006775726174696F6E2E680A005049442056
:1004A0004175746F74756E65206661696C65642151
:1004B0002074696D656F75740A0045312054484594
:1004C000524D414C2052554E4157415900424544EE
:1004D00020544845524D414C2052554E41574159A8
:1004E00000546865726D616C2052756E6177617938
:1004F0000045312048656174696E67206661696CEA
:100500006564004265642068656174696E67206691
:1005100061696C65640048656174696E6720666135
:10052000696C656400504944204175746F74756E40
:1005300065206661696C6564212054656D70657223
:10054000617475726520746F6F20686967680A004E
:10055000204B643A2000204B693A2000204B703A2F
:1005600020000A20436C6173736963205049442062
:100570000A002054753A2000204B753A2000206D67
:1005800061783A2000206D696E3A200020643A209C
:100590000020626961733A2000504944204175741B
:1005A0006F74756E652073746172740A00504944EB
:1005B000204175746F74756E65206661696C656441
:1005C0002120426164206578747275646572206EC2
:1005D000756D6265720A004F66660A004661646561
:1005E000204865696768742000426564204C657620
:1005F000656C696E6720004661696C656420746F84
:1006000020656E61626C6520426564204C6576658C
:100610006C696E670A004F6666736574732061705B
:10062000706C696564004572723A20546F6F206681
:1006300061722100546F6F206661722066726F6D67
:10064000207265666572656E636520706F696E7491
:100650000A004D3630303A20546F6F20636F6C645F
:1006600000486F74656E6420746F6F20636F6C64F4
:100670000A00496E736572742066696C616D656EFF
:100680007420616E64207072657373206275747477
:100690006F6E0A00507265737320627574746F6EAA
:1006A00020746F2068656174206E6F7A7A6C650AB9
:1006B00000496E736572742066696C616D656E7455
:1006C00020616E6420707265737320627574746F3C
:1006D0006E20286F72204D313038290A00496E7320
:1006E0006572742066696C616D656E7420616E64FC
:1006F00020707265737320627574746F6E20286F3A
:1007000072204D313038290A00536C6565702E2EE9
:100710002E00486F6D652058592066697273740AFF
:1007200000486F6D65205859206669727374002007
:100730005A3A200020593A200042656420583A2055
:10074000004D65736820706F696E742063616E6E12
:100750006F74206265207265736F6C7665640A0041
:10076000436C69636B20746F20726573756D652EC1
:100770002E2E004E6F206D6F76652E00456E642024
:1007800066696C65206C6973740A00426567696EFE
:100790002066696C65206C6973740A00286E6F208E
:1007A00066696C65290043757272656E74206669AE
:1007B0006C653A20005344207072696E74696E67EC
:1007C000206279746520004E6F742053442070724B
:1007D000696E74696E670A002569730025696D206A
:1007E000256973002569682025696D2025697300D6
:1007F000256964202569682025696D2025697300B5
:1008000025697920256964202569682025696D207E
:10081000256973005072696E742074696D653A20A1
:10082000006F6666006A0265025E02570249024472
:10083000454255473A004B494C4C45442E20004D0B
:100840003131332053006F6B0041525445464143D0
:10085000542055524241494E204352313073342086
:100860004F66662E00544845524D414C5F50524FE2
:1008700054454354494F4E004155544F5245504FF3
:1008800052545F53445F53544154555300454D45B2
:100890005247454E43595F504152534552004341E0
:1008A00053455F4C494748545F4252494748544E6C
:1008B00045535300544F47474C455F4C49474854B4
:1008C0005300534F4654574152455F504F5745527E
:1008D000004255494C445F50455243454E54004CEC
:1008E0004556454C494E475F44415441005A5F507C
:1008F000524F4245004155544F4C4556454C0050CF
:1009000052494E545F4A4F420050524F475245534E
:1009100053004155544F5245504F52545F54454D2A
:100920005000564F4C554D45545249430045455093
:10093000524F4D0053455249414C5F584F4E5F58FE
:100940004F4646004649524D574152455F4E414D34
:10095000453A4D61726C696E20312E312E39202856
:100960004769746875622920534F555243455F4368
:100970004F44455F55524C3A68747470733A2F2F48
:100980006769746875622E636F6D2F4D61726C6953
:100990006E4669726D776172652F4D61726C696E1A
:1009A0002050524F544F434F4C5F56455253494F7E
:1009B0004E3A312E30204D414348494E455F5459FF
:1009C00050453A41525445464143542055524241C4
:1009D000494E2043523130733420455854525544C7
:1009E00045525F434F554E543A3120555549443A8C
:1009F00063656465326132662D343161322D34377E
:100A000034382D396231322D6335356336326633F1
:100A1000363766660A002F2F20004D3134352053BB
:100A20003C696E6465783E206F7574206F66207235
:100A3000616E67652028302D31290A00205400207E
:100A40005200416363656C65726174696F6E3A2030
:100A500050005741524E494E4721204C6F77205A43
:100A6000204A65726B206D6179206C656164207429
:100A70006F20756E77616E74656420706175736543
:100A8000732E0A0020466C6F773A2000000136373B
:100A90002603FFFFFF353C3D380EFFFFFF312E30B0
:100AA0003E12FFFFFFFF28FF0C0809FFFFFF1A1C83
:100AB00018FFFF2A08440AFF43206F7574206F66F1
:100AC0002072616E67650A00536572766F20003A86
:100AD000200020536572766F2000496E76616C6944
:100AE000642065787472756465720A0020643A0047
:100AF00020693A0020703A0043290A0061626C655F
:100B00006420286D696E2074656D702000436F6CE1
:100B10006420657874727564657320617265200065
:100B200020643A0020693A0020703A004E6F20633A
:100B3000617365206C696768740A004D657368208D
:100B4000706F696E742063616E6E6F7420626520D1
:100B50007265736F6C7665640A004D3432312069BA
:100B60006E636F727265637420706172616D65741B
:100B700065722075736167650A00454550524F4D97
:100B8000204F4B0A003F5A206F7574206F66207209
:100B9000616E676520282D323020746F2032302935
:100BA0000A003A200050726F6265205A204F666634
:100BB0007365740041637469766520457874727555
:100BC0006465723A2000496E76616C6964206578CC
:100BD0007472756465720A00526573656E643A20BA
:100BE000006F6B0020746F6F206C6F6E67206578EC
:100BF00074727573696F6E2070726576656E746558
:100C0000640A0020636F6C64206578747275736980
:100C10006F6E2070726576656E7465640A00627529
:100C200073793A2070617573656420666F7220690C
:100C30006E7075740A00627573793A20706175730D
:100C4000656420666F7220757365720A0062757341
:100C5000793A2070726F63657373696E670A004B2F
:100C6000494C4C45442E20004B494C4C2063617547
:100C7000736564206279204B494C4C206275747412
:100C80006F6E2F70696E0A004B494C4C45442E2004
:100C9000004B494C4C206361757365642062792078
:100CA000746F6F206D75636820696E616374697617
:100CB000652074696D65202D2063757272656E7490
:100CC00020636F6D6D616E643A20004D36303000E8
:100CD000506C65617365207265736574005052498C
:100CE0004E5445522048414C544544005072696E60
:100CF0007465722068616C7465642E206B696C6C1D
:100D000028292063616C6C6564210A004D33310031
:100D100053442072656164206572726F720A0044E8
:100D20006F6E65207072696E74696E672066696C9B
:100D3000650A004B494C4C45442E200053544F50FB
:100D40005045442E20005072696E74657220737491
:100D50006F707065642064756520746F20657272B1
:100D60006F72732E204669782074686520657272F0
:100D70006F7220616E6420757365204D393939209A
:100D8000746F20726573746172742E202854656DBF
:100D90007065726174757265206973207265736520
:100DA000742E205365742069742061667465722006
:100DB00072657374617274696E67290A004E6F20E0
:100DC000436865636B73756D2077697468206C691F
:100DD0006E65206E756D6265722C204C6173742097
:100DE0004C696E653A20004E6F20436865636B73F3
:100DF000756D2077697468206C696E65206E756DFD
:100E00006265722C204C617374204C696E653A20C7
:100E100000636865636B73756D206D69736D6174D4
:100E200063682C204C617374204C696E653A200015
:100E30004C696E65204E756D626572206973206E17
:100E40006F74204C617374204C696E65204E756D13
:100E50006265722B312C204C617374204C696E6575
:100E60003A20004D31313000000000000000000049
:100E7000000000000000484200004842000080409E
:100E8000000000005761726E696E673A20486F6D0E
:100E9000696E672042756D702044697669736F7260
:100EA000203C20310A000202040000A0400000A003
:100EB00040000000400000C8430000C8430000C8D4
:100EC00043FFFFFF7C3C3E5E2B3D3F2F5B5D3B2C99
:100ED0002A225C004572726F722077726974696EA3
:100EE0006720746F20454550524F4D210A004545FB
:100EF00050524F4D206461746173697A6520657248
:100F0000726F722E0A00290A002062797465733BA1
:100F100020637263200053657474696E6773205395
:100F2000746F726564202800290A00206279746554
:100F3000733B2063726320002073746F72656420BA
:100F400073657474696E677320726574726965760F
:100F50006564202800202863616C63756C6174658A
:100F60006429210A0020213D2000454550524F4D63
:100F700020435243206D69736D61746368202D2096
:100F80002873746F7265642920002053697A653A6A
:100F90002000496E6465783A2000204D61726C69CA
:100FA0006E3D563535290A0028454550524F4D3D76
:100FB00000454550524F4D2076657273696F6E2023
:100FC0006D69736D61746368200048617264636F5A
:100FD0006465642044656661756C7420536574743F
:100FE000696E6773204C6F616465640A00F40100E8
:100FF00000F4010000640000008813000000009667
:1010000043000096430000A0400000C8410000A03B
:10101000420000A0420000C8430080CF433A0A00CB
:1010200020286D6D290020204D36303320002055BA
:10103000004C0046696C616D656E74206C6F616474
:101040002F756E6C6F6164206C656E677468733A9F
:101050000A0020204D383531205A005A2D50726F29
:101060006265204F66667365740020440020490065
:1010700020204D33303420500020440020490020EF
:10108000204D333031205000504944207365747432
:10109000696E67733A0A002046002042002048002B
:1010A00020204D3134352053004D617465726961E3
:1010B0006C2068656174757020706172616D657413
:1010C0006572733A0A00205A00204A0020204732F5
:1010D000392057204900205A0020204D343230203A
:1010E00053004175746F20426564204C6576656CD1
:1010F000696E673A0A00205A0020590020204D32BC
:101100003036205800486F6D65206F6666736574D1
:101110003A0A00204500205A00205900205800209B
:10112000540020530020204D32303520420020450D
:101130003C6D61785F655F6A65726B3E0020583C6C
:101140006D61785F785F6A65726B3E20593C6D61B6
:10115000785F795F6A65726B3E205A3C6D61785F9B
:101160007A5F6A65726B3E00416476616E636564A6
:101170003A20423C6D696E5F7365676D656E745FA2
:1011800074696D655F75733E20533C6D696E5F6673
:10119000656564726174653E20543C6D696E5F7470
:1011A000726176656C5F66656564726174653E0048
:1011B00020540020520020204D3230342050004175
:1011C0006363656C65726174696F6E2028756E6902
:1011D00074732F7332293A20503C7072696E745FB9
:1011E000616363656C3E20523C7265747261637426
:1011F0005F616363656C3E20543C74726176656C1C
:101200005F616363656C3E0A00204500205A002040
:10121000590020204D3230312058004D6178696DE1
:10122000756D20416363656C65726174696F6E20D2
:1012300028756E6974732F7332293A0A00204500AD
:10124000205A0020590020204D3230332058004DC4
:101250006178696D756D206665656472617465732A
:101260002028756E6974732F73293A0A002045008F
:10127000205A0020590020204D3932205800537444
:101280006570732070657220756E69743A0A00206B
:10129000204D3230302044300A0020204D32303092
:1012A0002044002044697361626C65640A004669E9
:1012B0006C616D656E742073657474696E67733AE2
:1012C0000020204D3134392043203B20556E697475
:1012D0007320696E2043656C736975730A00202062
:1012E000473231202020203B001000C90210012C81
:1012F000014001220170011801B0010E01F001044A
:10130000015002FA00B002F0003003E600D003DC26
:10131000009004D2007005C800A006BE000008B40A
:1013200000B009AA00D00BA000600E960060118CDE
:10133000000015820020197800C01D6E00A02264F4
:1013400000B0275A00902C500000314600E0343C99
:101350000010383200903A2800603C1E00A03D1476
:1013600000803E0A00203F000066696C616D656E7A
:10137000743A20007A5F6D696E3A2000795F6D697A
:101380006E3A2000785F6D696E3A20005265706F8A
:101390007274696E6720656E6473746F7020737405
:1013A000617475730A0020746F6F206C6F6E672014
:1013B000657874727573696F6E2070726576656E8C
:1013C0007465640A0020636F6C64206578747275BC
:1013D00073696F6E2070726576656E7465640A005D
:1013E00024F4D43050C38E20C2A24017828B7011D7
:1013F000127A910D816CD90AA861E108C758660775
:10140000615143061E4B5D05C145A7041A411104F5
:10141000093D9803713931034036DB02653391028F
:10142000D4305402802E1D02632CEE01752AC501B2
:10143000B028A001102781018F2564012B244B01C6
:10144000E0223401AC211F018D200D01801FFC0022
:10145000841EED00971DDF00B81CD200E61BC600FD
:10146000201BBC00641AB200B219A8000A19A0001F
:101470006A189900D117910040178B00B5168400A7
:1014800031167E00B31579003A157300C7146F004A
:1014900058146A00EE1366008813630025135E007B
:1014A000C7125B006C12570015125400C111510095
:1014B00070114F0021114B00D61049008D104700CC
:1014C0004610440002104200C00F4000800F3E0052
:1014D000420F3C00060F3B00CB0E3800930E370046
:1014E0005C0E3500270E3400F30D3200C10D3100C3
:1014F000900D3000600D2E00320D2D00050D2C00DA
:10150000D90C2B00AE0C2900850C29005C0C27009F
:10151000350C27000E0C2600E80B2400C40B240019
:10152000A00B23007D0B23005A0B2100390B210057
:10153000180B2000F80A1F00D90A1E00BB0A1E0063
:101540009D0A1D00800A1D00630A1C00470A1B003B
:101550002C0A1B00110A1A00F7091A00DD091900EC
:10156000C4091900AB091900920917007B0918007A
:10157000630917004C0916003609160020091600E9
:101580000A091500F5081500E0081400CC0814003D
:10159000B8081400A4081400900813007D08120075
:1015A0006B08130058081200460812003408110096
:1015B000230811001208110001081100F0071000A3
:1015C000E0071000D0071000C0071000B0070F00A0
:1015D000A107100091070E0083070F0074070F008A
:1015E00065070E0057070E0049070E003B070D0068
:1015F0002E070E0020070D0013070D0006070D0033
:10160000F9060C00ED060D00E0060C00D4060C00F7
:10161000C8060C00BC060C00B0060C00A4060B00AB
:1016200099060C008D060B0082060B0077060B0056
:101630006C060B0061060A0057060B004C060A00F8
:1016400042060A0038060A002E060A0024060A008E
:101650001A060A001006090007060A00FD0509001F
:10166000F4050900EB050900E2050900D9050900A8
:10167000D0050900C7050900BE050900B505080029
:10168000AD050800A50509009C05080094050800A3
:101690008C050800840508007C0508007405080016
:1016A0006C050700650508005D0507005605080084
:1016B0004E050700470507004005080038050700EC
:1016C000310507002A050700230507001C05060051
:1016D000160507000F0507000805060002050700AC
:1016E000FB040600F5040700EE040600E80406000B
:1016F000E2040700DB040600D5040600CF04060060
:10170000C9040600C3040600BD040600B7040600B1
:10171000B1040500AC040600A6040600A004050000
:101720009B04060095040500900406008A04050049
:1017300085040500800406007A0405007504050090
:10174000700405006B0405006604050061040500D3
:101750005C04050057040500520405004D04050013
:1017600048040500430405003E0404003A04050053
:1017700035040500300404002C040500270404008F
:10178000230405001E0404001A04040016040500C6
:10179000110404000D0404000904050004040400FD
:1017A00000040400FC030400F8030400F403040034
:1017B000F0030400EC030400E8030400E403040065
:1017C000E0030400DC030400D8030400D403040095
:1017D000D0030400CC030400C8030300C5030300C6
:1017E00024F404D9201BC40C5C0E9804C4095F02C5
:1017F00065077101F405F900FB04B3004804870094
:10180000C10369005803550003034500BE023A00B6
:101810008402310053022A0029022500040220001C
:10182000E4011C00C8011900AF0117009801140061
:1018300084011300710110006101100051010E00BC
:1018400043010D0036010B002B010B0020010B00A2
:10185000150109000C01090003010800FB00080044
:10186000F3000800EB000700E4000600DE000600BD
:10187000D8000600D2000600CC000500C700050015
:10188000C2000500BD000400B9000400B50004005A
:10189000B1000400AD000400A9000400A50003008D
:1018A000A20003009F0004009B00030098000300B7
:1018B0009500020093000300900003008D000200D9
:1018C0008B000300880002008600020084000300F1
:1018D000810002007F0002007D0002007B00020008
:1018E0007900020077000100760002007400020017
:1018F00072000100710002006F0002006D00010023
:101900006C0002006A00010069000200670001002B
:101910006600010065000100640002006200010031
:1019200061000100600001005F0002005D00010035
:101930005C0001005B0001005A0001005900010039
:101940005800010057000100560001005500010039
:101950005400010053000000530001005200010038
:1019600051000100500001004F0001004E00000036
:101970004E0001004D0001004C0001004B00000032
:101980004B0001004A00010049000100480000002E
:101990004800010047000100460000004600010029
:1019A0004500000045000100440001004300000024
:1019B000430001004200000042000100410000001D
:1019C00041000100400001003F0000003F00010015
:1019D0003E0000003E0001003D0000003D0001000F
:1019E0003C0000003C0000003C0001003B00000007
:1019F0003B0001003A0000003A00010039000000FD
:101A000039000100380000003800000038000100F3
:101A100037000000370001003600000036000000EB
:101A200036000100350000003500000035000100DF
:101A300034000000340000003400010033000000D6
:101A400033000000330001003200000032000000CB
:101A500032000100310000003100000031000100BF
:101A60003000000030000000300001002F000000B6
:101A70002F0000002F0000002F0001002E000000AA
:101A80002E0000002E0001002D0000002D0000009F
:101A90002D0000002D0001002C0000002C00000093
:101AA0002C0000002C0001002B0000002B00000087
:101AB0002B0000002B0001002A0000002A0000007B
:101AC0002A0000002A00010029000000290000006F
:101AD0002900000029000000290001002800000062
:101AE0002800000028000000280000002800010055
:101AF000270000002700000027000000270000004A
:101B0000270001002600000026000000260000003B
:101B1000260000002600010025000000250000002E
:101B20002500000025000000250000002500010020
:101B30002400000024000000240000002400000015
:101B40002400010023000000230000002300000007
:101B500023000000230000002300000023000100F8
:101B600022000000220000002200000022000000ED
:101B700022000000220001002100000021000000DE
:101B800021000000210000002100000021000000D1
:101B900021000100200000002000000020000000C3
:101BA00020000000200000002000000020000000B5
:101BB000200001001F0000001F0000001F000000A7
:101BC0001F0000001F0000001F0000001F00010098
:101BD0001E0000001E0000001E0000001E0000008D
:101BE000043700001E290000511B0000581000009F
:101BF00010090000CC040000780200004101000040
:101C00006265640A002C2073797374656D207374A7
:101C10006F7070656421204865617465725F494426
:101C20003A20004265642068656174696E672066C9
:101C300061696C65640048656174696E67206661FE
:101C4000696C65640045312048656174696E672080
:101C50006661696C65640048656174696E672066D9
:101C600061696C65640070012C0190012701B0016D
:101C70002201C0011D01F001180110021301300200
:101C80000E016002090190020401C002FF0000037E
:101C9000FA004003F5008003F000D003EB002004BD
:101CA000E6007004E100E004DC004005D700C00558
:101CB000D2004006CD00D006C8008007C30030081F
:101CC000BE00F008B900C009B400B00AAF00B00B04
:101CD000AA00D00CA500000EA000500F9B00C01061
:101CE00096005012910000148C00C0158700B017A8
:101CF0008200B0197D00D01B7800001E73004020C8
:101D00006E0090226900F024640040275F00902953
:101D10005A00E02B5500102E500020304B0010329E
:101D20004600E033410090353C00103737007038F2
:101D30003200A0392D00B03A2800A03B2300603CBF
:101D40001E00103D1900903D1400103E0F00703E23
:101D50000A00C03E0500003F0000403FFBFF803FFF
:101D6000F6FFC03FF1FF453120544845524D414CEC
:101D70002052554E41574159004245442054484550
:101D8000524D414C2052554E4157415900546865BF
:101D9000726D616C2052756E6177617900453120FA
:101DA0004572723A204D415854454D50004572726B
:101DB0003A204D415854454D5020424544004D4134
:101DC0005854454D502074726967676572656400A8
:101DD0004531204572723A204D494E54454D5000D0
:101DE0004572723A204D494E54454D50204245446B
:101DF000004D494E54454D502074726967676572B5
:101E00006564004D383420582059205A2045002060
:101E10002F002042403A0020403A0025753A2530F4
:101E2000327500253032753A2530327500257564DB
:101E300020253032753A25303275002020202020B0
:101E400020005A00590020202020005800092000BE
:101E50000000000000000000000000003FFFF00054
:101E600000000000000000000000003800700000CA
:101E70000000000000000000000030FC3000000006
:101E800000000000000000000020FC100000000026
:101E9000000000000000000020781000000000009A
:101EA00000000000000000203010000000000000D2
:101EB0000000000000002C00D03FC0000000000027
:101EC00000002082002E31D07FE0000000000000E2
:101ED000001041002F7BD07FE000000000000000D8
:101EE0001041002F7BD07FE00000000000000020A8
:101EF00082002E31D03FC0000000000000004104ED
:101F0000002C00D03FC0000000000000008208004C
:101F10002030107FE0000000000000008208002058
:101F200078107FE00000000000000041040020FC69
:101F3000107FE00000000000000020820030FC3034
:101F40001F80000000000000000000003800700F3B
:101F50000000000000000000FFFFC03FFFF006008F
:101F600000000000000000FFFFC0000000000000B3
:101F70000000000000000000003FFFF00000000033
:101F800000000000000000003800700000000000A9
:101F9000000000000000003186300000000000005A
:101FA0000000000000002387100000000000000077
:101FB00000000000002787900000000000000000E3
:101FC000000000002F87D00000000000000000008B
:101FD0000000002F03D03FC00000000000000020E0
:101FE00082002030107FE00000000000000010415F
:101FF000002078107FE00000000000000010410089
:102000002078107FE0000000000000002082002007
:1020100030103FC0000000000000004104002F030A
:10202000D03FC0000000000000008208002F87D0D1
:102030007FE0000000000000008208002787907FFA
:10204000E0000000000000004104002387107FE052
:10205000000000000000002082003186301F800058
:102060000000000000000000003800700F000000B9
:102070000000000000FFFFC03FFFF006000000006E
:1020800000000000FFFFC0000000415254454641DF
:1020900043542055524241494E204352313073340B
:1020A0002052656164792E005072696E74696E67A2
:1020B0002E2E2E005072696E7420706175736564E7
:1020C000004D3130362050256920532569004D31AF
:1020D000303920532569004D3139302053256900AE
:1020E0004D3432302053300A4732382058205900BE
:1020F00053746F70207072696E7400526573756DE1
:1021000065207072696E7400506F7765722D4C6F28
:102110007373205265636F766572790053746F77BD
:1021200020424C546F756368004D32383020503077
:1021300020533930004465706C6F7920424C546FE5
:10214000756368004D3238302050302053313000F4
:10215000424C546F7563682053656C662D546573EB
:1021600074004D323830205030205331323000521C
:102170006573657420424C546F756368004D323846
:10218000302050302053313630004D61696E0050A0
:1021900072696E742061626F72746564004D3231D1
:1021A000004E6F2053442063617264004368616E87
:1021B00067652053442063617264004D32310050E2
:1021C00072696E742066726F6D2053440053746F91
:1021D00070207072696E7400526573756D65207041
:1021E00072696E7400496E69742E205344206361D5
:1021F0007264005061757365207072696E7400437B
:102200006F6E74726F6C005072657061726500540D
:10221000756E6500496E666F2073637265656E004A
:102220004261627973746570205A004368616E6719
:10223000652066696C616D656E74004368616E67E8
:10224000652066696C616D656E74004D36303020B6
:102250004230004261627973746570205A00466CA6
:102260006F7700466C6F770046616E20737065650E
:10227000640046616E2073706565640042656400A9
:10228000426564004E6F7A7A6C65004E6F7A7A6CA4
:102290006500466164652048656967687400466149
:1022A00064652048656967687400537065656400FB
:1022B0005370656564004D61696E005072656865B4
:1022C000617420504C4120456E6400507265686511
:1022D000617420504C41204265640050726568650D
:1022E000617420504C4100507265706172650050FD
:1022F0007265686561742041425320456E640050E8
:1023000072656865617420414253204265640050E3
:102310007265686561742041425300507265706156
:102320007265004261636B004E65787420636F7262
:102330006E65720053746F72652073657474696E94
:102340006773004C6F61642073657474696E6773A2
:10235000004C6576656C20636F726E657273005019
:10236000726F6265205A204F666673657400507202
:102370006F6265205A204F6666736574004661641B
:102380006520486569676874004661646520486532
:1023900069676874004F6666004F6E20004265648E
:1023A000204C6576656C696E67004C6576656C20BF
:1023B000626564004732380A4732390047323900D3
:1023C0004175746F20686F6D650047323800507238
:1023D0006570617265004D343238004D32383020FE
:1023E0005030205331363000424C546F75636820B2
:1023F00053656C662D54657374004D32383020502F
:10240000302053313230005072656865617420416C
:102410004253005072656865617420504C4100431E
:102420006F6F6C646F776E00526573657420424CF9
:10243000546F756368004368616E67652066696CF8
:10244000616D656E74004368616E67652066696CD6
:10245000616D656E74004D36303020423000446945
:102460007361626C65207374657070657273004D82
:1024700038340053657420686F6D65206F6666732D
:1024800065747300426564204C6576656C696E679F
:10249000004175746F20686F6D6500473238004DDC
:1024A0006F76652061786973004D61696E004D6FCC
:1024B00076652058004D6F76652059004D6F766522
:1024C000205A004578747275646572004D6F7665A8
:1024D00020302E316D6D004D6F766520316D6D00B1
:1024E0004D6F76652031306D6D004D6F76652061E2
:1024F000786973004578747275646572004D6F7603
:1025000065205A004D6F76652059004D6F76652025
:1025100058004578747275646572004D6F76652059
:102520005A004D6F76652059004D6F766520580032
:102530005072657061726500496E697469616C6999
:102540007A6520454550524F4D00436F6E74726F4F
:102550006C00526573746F7265206661696C73619B
:102560006665004C6F61642073657474696E67738F
:1025700000496E697469616C697A652045455052FD
:102580004F4D0053746F72652073657474696E6784
:102590007300424C546F7563680046696C616D65E9
:1025A0006E74004D6F74696F6E0054656D70657266
:1025B0006174757265004D61696E00507265686581
:1025C00061742041425320636F6E660050726568EB
:1025D00065617420504C4120636F6E660050494421
:1025E0002D44005049442D44005049442D49005089
:1025F00049442D49005049442D50005049442D5024
:10260000002008204661637400200820466163743E
:10261000002008204D6178002008204D61780020BE
:1026200008204D696E002008204D696E004F6666D7
:10263000004F6E20004175746F74656D70004661C7
:102640006E2073706565640046616E207370656509
:10265000640042656400426564004E6F7A7A6C657E
:10266000004E6F7A7A6C6500436F6E74726F6C0007
:1026700053746F72652073657474696E677300427A
:10268000656400426564004E6F7A7A6C65004E6F37
:102690007A7A6C650046616E2073706565640046E9
:1026A000616E2073706565640054656D706572615C
:1026B00074757265005654726176206D696E0056AD
:1026C00054726176206D696E00566D696E00566DAC
:1026D000696E00566D6178204500566D6178204521
:1026E00000566D6178205A00566D6178205A005668
:1026F0006D6178205900566D6178205900566D61E2
:1027000078205800566D61782058004D6F74696FBD
:102710006E00416D6178204500416D617820450073
:10272000416D6178205A00416D6178205A00416DF9
:102730006178205900416D6178205900416D6178C0
:10274000205800416D6178205800412D74726176E7
:10275000656C00412D74726176656C00412D726567
:10276000747261637400412D7265747261637400E8
:10277000416363656C00416363656C004D6F746910
:102780006F6E0056652D6A65726B0056652D6A6521
:10279000726B00567A2D6A65726B00567A2D6A65E7
:1027A000726B0056792D6A65726B0056792D6A65D9
:1027B000726B0056782D6A65726B0056782D6A65CB
:1027C000726B004D6F74696F6E0045737465707342
:1027D0002F6D6D004573746570732F6D6D005A73A6
:1027E000746570732F6D6D005A73746570732F6DFF
:1027F0006D005973746570732F6D6D005973746536
:1028000070732F6D6D005873746570732F6D6D004C
:102810005873746570732F6D6D004D6F74696F6EB2
:102820000053746570732F6D6D004A65726B0041C3
:102830006363656C65726174696F6E0056656C6F79
:10284000636974790050726F6265205A204F666622
:102850007365740050726F6265205A204F6666730C
:10286000657400436F6E74726F6C004C6F6164200E
:102870006D6D004C6F6164206D6D00556E6C6F6105
:1028800064206D6D00556E6C6F6164206D6D004647
:10289000696C2E204469612E0046696C2E204469C3
:1028A000612E004F6666004F6E20004520696E2045
:1028B0006D6D3300436F6E74726F6C0043616E6EAA
:1028C0006F7420656E746572207375626469723A04
:1028D0002000022E2E000152656672657368004D5D
:1028E00061696E004D37303220542564004D36301A
:1028F0003020423020542564004D373032203B25B3
:1029000064004D37303120542564004368616E67A0
:10291000652066696C616D656E74005072656865EE
:1029200061742041425300507265686561742050A3
:102930004C41004368616E67652066696C616D6536
:102940006E74005052494E54205041555345440036
:10295000554E4C4F41442046494C414D454E540044
:102960004C4F41442046494C414D454E5400507512
:10297000726765206D6F726500436F6E74696E7566
:102980006500524553554D45204F5054494F4E53C5
:102990003A0020204E6F7A7A6C653A2000636861B5
:1029A0006E6765006F66207468652066696C616D8E
:1029B000656E74005761697420666F72207374616C
:1029C00072740020204E6F7A7A6C653A20002000E5
:1029D00066696C616D656E7420756E6C6F61640004
:1029E0005761697420666F720020204E6F7A7A6C8E
:1029F000653A20002000506C65617365207761693D
:102A0000742E2E2E0048656174696E67206E6F7A91
:102A10007A6C650020204E6F7A7A6C653A2000202F
:102A20000068656174206E6F7A7A6C652E00507252
:102A300065737320627574746F6E20746F0020204C
:102A40004E6F7A7A6C653A2000746F20636F6E74F3
:102A5000696E75652E2E2E00616E6420707265732E
:102A60007320627574746F6E00496E7365727420A2
:102A700066696C616D656E740020204E6F7A7A6CA9
:102A8000653A2000200066696C616D656E74206C8B
:102A90006F6164005761697420666F720020204E78
:102AA0006F7A7A6C653A2000200066696C616D650A
:102AB0006E74207075726765005761697420666F67
:102AC0007200746F20726573756D6500576169746B
:102AD00020666F72207072696E74000000210024FD
:102AE0000027002A002D00300033000101000004FF
:102AF0000107010A0100002200250028002B002EFA
:102B0000003100340002010000050108010B010042
:102B10000020002300260029002C002F0032000096
:102B20000100000301060109010505050507050867
:102B3000080808020202020A0A0808040404040140
:102B40000101010101010103030303030303030462
:102B50000707070C0C0C0C0C0C0C0C0202020206F2
:102B6000060606060606060B0B0B0B0B0B0B0B01E2
:102B7000021020200808102040102040800201028E
:102B80000108040201010204081020408080402056
:102B90001008040201800402018040201008040291
:102BA000010804020101020408102040800102040F
:102BB000081020408000000A0B02090C0D0E0807C7
:102BC00003040100000000000000000000000000FD
:102BD00000000000000000000000000000000000F5
:102BE00000121110000000000000000000000000B2
:102BF0000000000000000000000000021FFFFFFFB7
:102C0000FFFFFF600000000001FF40000000000027
:102C1000FF8000000000007F83CF00000C303F8762
:102C2000FF80000C301F867980000C000F8C30C7AD
:102C3000838C30E78C30CFC7CC31F38C30DCECECBC
:102C400033B98C30D86C6C33198C30D06C0C331990
:102C50008C30D86C0C33198C30DC6C0E3B198C30FA
:102C6000CF7C079F198C30C77C038F194000000070
:102C7000000002600000000000061FFFFFFFFFFFD2
:102C8000F8494E56414C49442044415441004D328C
:102C9000342053256C642054256C64004D3233205D
:102CA0002573004739322E30205A2573204525736D
:102CB000004D34323020532569205A2573004732A5
:102CC0003820523020582059004731205A320047CE
:102CD00039322E30205A30004D34323020533020DB
:102CE0005A30002020506C616E6E657242756666C7
:102CF000657242797465733A2000204672656520DA
:102D00004D656D6F72793A2000436F6D70696C6527
:102D1000643A2044656320313320323031390A006F
:102D2000207C20417574686F723A20286E6F6E6542
:102D30002C2064656661756C7420636F6E666967CC
:102D4000290A00323031382D30372D333100204CF4
:102D500061737420557064617465643A2000312E8B
:102D6000312E390A004D61726C696E0020536F6616
:102D700074776172652052657365740A002057612B
:102D8000746368646F672052657365740A0020423B
:102D9000726F776E206F75742052657365740A00C8
:102DA0002045787465726E616C2052657365740A93
:102DB00000506F77657255700A0073746172740AFF
:102DC000006175746F25692E67006572726F7220DD
:102DD00077726974696E6720746F2066696C650A22
:102DE00000456E6473746F70732025632025632023
:102DF000256320256300205A3A0020593A002058C4
:102E00003A00656E6473746F7073206869743A2059
:102E100000446F6E6520736176696E672066696C29
:102E2000652E0A004D3239004D3234004D323320C8
:102E3000257300556E6B6E6F776E20636F6D6D61DD
:102E40006E643A202200486F74656E6420746F6F60
:102E500020636F6C640A0057726974696E6720742E
:102E60006F2066696C653A20006F70656E20666140
:102E7000696C65642C2046696C653A200050726F5D
:102E800062696E67206661696C65640A0050726FE2
:102E900062696E67206661696C656400205A3A2039
:102EA0000020593A200042656420583A20005354CB
:102EB0004F505045442E20005072696E7465722048
:102EC00073746F707065642064756520746F20651D
:102ED00072726F72732E204669782074686520655F
:102EE00072726F7220616E6420757365204D39397E
:102EF0003920746F20726573746172742E202854A7
:102F0000656D706572617475726520697320726594
:102F10007365742E2053657420697420616674652E
:102F2000722072657374617274696E67290A005346
:102F3000544F502063616C6C6564206265636175F9
:102F40007365206F6620424C546F7563682065720C
:102F5000726F72202D2072657374617274207769AC
:102F60007468204D3939390A005344206361726412
:102F7000206F6B0A006F70656E526F6F7420666110
:102F8000696C65640A00766F6C756D652E696E6993
:102F900074206661696C65640A00534420696E6937
:102FA00074206661696C0A00486F6D652025732581
:102FB0007325732066697273740020666972737476
:102FC0000A005A0059005800486F6D65200057727A
:102FD0006974696E6720746F2066696C653A2000B9
:102FE0006F70656E206661696C65642C2046696C43
:102FF000653A20006F70656E206661696C65642CAF
:103000002046696C653A200046696C652073656CE2
:1030100065637465640A002053697A653A20004646
:10302000696C65206F70656E65643A200020666982
:103030006C653A2000646F696E670066726573683C
:10304000004E6F772000454E4420535542524F5555
:1030500054494E450A002220706F7300222070618F
:1030600072656E743A2200535542524F5554494E80
:10307000452043414C4C207461726765743A2200CC
:103080004B494C4C45442E2000747279696E672080
:10309000746F2063616C6C207375622D67636F645D
:1030A000652066696C6573207769746820746F6F3A
:1030B000206D616E79206C6576656C732E204D41B4
:1030C00058206C6576656C2069733A0043616E6EBA
:1030D0006F74206F70656E20737562646972200072
:1030E0006563686F3A0044656C6574696F6E20664D
:1030F00061696C65642C2046696C653A20004669FC
:103100006C652064656C657465643A006F70656E0B
:10311000206661696C65642C2046696C653A200004
:103120004572726F723A0000060900FE07019203B1
:1031300021207FFF07FF07FF0000000600000107B6
:103140000706020080808080800080030202060162
:1031500005A0A00507070600005050F850F8505091
:103160000507070600002078A07028F02005070753
:10317000060000C0C8102040981805070706000088
:103180006090A040A89068020303060104C040803C
:1031900003070706010020408080804020030707C6
:1031A0000601008040202020408005050506000122
:1031B00020A870A8200505050600012020F8202081
:1031C0000203030602FFC04080050101060003F868
:1031D000020202060200C0C0050505060001081033
:1031E000204080050707060000708888888888705E
:1031F00003070706010040C040404040E0050707C4
:10320000060000708808708080F805070706000037
:10321000F81020100808F0050707060000103050CD
:1032200090F81010050707060000F880F0080888DD
:1032300070050707060000708080F0888870050719
:1032400007060000F80810202020200507070600C8
:1032500000708888708888700507070600007088ED
:103260008878080870020505060200C0C000C0C0CA
:103270000206060602FFC0C000C040800407070621
:10328000000010204080402010050303060002F8D3
:1032900000F8040707060100804020102040800548
:1032A00007070600007088081020002005070706A1
:1032B000000070880868A8A870050707060000705D
:1032C0008888F8888888050707060000F08888F055
:1032D0008888F00507070600007088808080887065
:1032E000050707060000F08888888888F00507072A
:1032F000060000F88080F08080F8050707060000CF
:10330000F88080F0808080050707060000708880C4
:10331000B8888870050707060000888888F88888BC
:103320008801070706020080808080808080050772
:1033300007060000381010101090600507070600FF
:10334000008890A0C0A09088050707060000808034
:1033500080808080F805070706000088D8A8888844
:1033600088880507070600008888C8A89888880507
:103370000707060000708888888888700507070698
:103380000000F08888F08080800507070600007044
:10339000888888A89068050707060000F08888F0EC
:1033A000A09088050707060000788080700808F064
:1033B000050707060000F820202020202005070729
:1033C000060000888888888888700507070600003E
:1033D0008888888888502005070706000088888824
:1033E0008888A85005070706000088885020508864
:1033F00088050707060000888888502020200507D8
:1034000007060000F80810204080F80307070601AF
:1034100000E08080808080E0050505060001804096
:10342000201008030707060100E02020202020E0EC
:10343000050303060004205088050101060000F87A
:10344000020202060205804005050506000070081C
:103450007888780507070600008080B0C88888F063
:1034600005050506000070808088700507070600C6
:1034700000080868988888780505050600007088A7
:10348000F880700507070600003048E040404040E3
:103490000506060600FF708888780870050707068D
:1034A00000008080B0C88888880107070602008075
:1034B0000080808080800308080601FF2000202013
:1034C0002020A040040707060000808090A0C0A034
:1034D00090030707060100C04040404040E005055A
:1034E00005060000D0A8A8A8A8050505060000B09C
:1034F000C8888888050505060000708888887005DA
:1035000006060600FFF08888F080800506060600A3
:10351000FF788888780808050505060000B0C8808F
:10352000808005050506000070807008F00407071C
:103530000600004040E04040403005050506000020
:1035400088888898680505050600008888885020C6
:103550000505050600008888A8A850050505060091
:103560000088502050880506060600FF8888887865
:103570000870050505060000F8102040F80307074D
:10358000060100204040804040200107070602005D
:103590008080808080808003070706010080404093
:1035A00020404080050202060002689000000006EC
:1035B000000000060900FE000000000001090008EC
:1035C000FE000005080806000040F0C888889878CA
:1035D00010050808060000C0F88888888888F80563
:1035E00005050600012030F8302005080806000017
:1035F0002070F820202020E00509090600FF207037
:10360000A8A8B8888870200509090600FFE080C0D6
:10361000B0A8283028280509090600FFF8A88888DE
:10362000888888A8F8050A0A0600FE2050505050E5
:1036300088A8A8887003030306000340A0407C000C
:103640007E0011241FBECFEFD1E2DEBFCDBF00E070
:103650000CBF13E0A0E0B2E0E4E3F5E402E00BBF4E
:1036600002C007900D92AA39B107D9F72CE1AAE957
:10367000B3E001C01D92AE37B207E1F71BE1C0E233
:10368000DBE100E006C021970109802FFE010F94C5
:10369000FB21CF31D10780E00807A9F70F94D60DA1
:1036A0000D9489220C940000CF92DF92EF92FF924A
:1036B0006091A20A7091A30A072E000C880B990B47
:1036C0000F9461196B017C012DEB37E346E855EB54
:1036D0000F94462187FD0BC02DEB37E346E855E3F9
:1036E000C701B6010F945B1918160CF043C0A7016F
:1036F000960160E070E080E89FE30F945A206093A9
:103700009F047093A0048093A1049093A2046091FD
:10371000A40A7091A50A072E000C880B990B0F9430
:1037200061196B017C012DEB37E346E855EB0F94F3
:10373000462187FD0AC02DEB37E346E855E3C70174
:10374000B6010F945B191816CCF4A701960160E03E
:1037500070E080E89FE30F945A206093A304709375
:10376000A4048093A5049093A604FF90EF90DF90AB
:10377000CF90089560E070E0CB01C1CF60E070E0D1
:10378000CB01EBCF8091B7039091B803A091B9031F
:10379000B091BA0380935C0290935D02A0935E02A5
:1037A000B0935F028091B5039091B603909322028B
:1037B00080932102089580915C0290915D02A09116
:1037C0005E02B0915F028093B7039093B803A09319
:1037D000B903B093BA038091210290912202909391
:1037E000B6038093B50384E690E090932202809321
:1037F000210208950F931F93CF93DF9394E0899F45
:10380000E00111248E010E5F1C4EFE01E65CFE4EAF
:10381000DE01AF5BBA4F2D913D914D915C9160817E
:103820007181828193810F94E31FF801608371831A
:1038300082839383FE01E157FD4F85919591A59178
:10384000B491FE01EA55F54F80839183A283B3833F
:10385000FE01E556FD4F85919591A591B491CD5D01
:10386000DD4F88839983AA83BB83DF91CF911F911A
:103870000F91089590914A11E92FF0E0EA5BFE4E16
:1038800080839F5F943040F490934A118091D212CC
:103890008F5F8093D212089510924A11F7CF089546
:1038A00090E080E0089580E1E2E1F3E1ADE4B5E08D
:1038B00001900D928A95E1F7089580E1EDE4F5E03D
:1038C000A2E1B3E101900D928A95E1F7089580910C
:1038D000790490917A042FEF3FEF981751F0E92F78
:1038E000F0E0E750FC4F208130E09F5F9F7790939E
:1038F0007A04C90108958F929F92AF92BF92CF929E
:10390000DF92EF92FF920F93CF93DF931F92CDB789
:10391000DEB76C017B014901809161055B01A40E5A
:10392000B51E8823A1F0F60180819181480F591FAF
:10393000518340830F90DF91CF910F91FF90EF90D3
:10394000DF90CF90BF90AF909F908F900895F60139
:10395000808191810F94601F8983909162059923E2
:1039600011F0002311F0F7018083BE016F5F7F4FDC
:10397000C4010E94E9E4F60180819181019691835E
:103980008083FFEFEF1AFF0AEA14FB0401F7D2CF9E
:1039900080919A0390919B03009731F04AE050E0A8
:1039A00070E060E00D946F1660E070E0CB01089568
:1039B000EFDF97FD0AC0ECDF6F3F710581059105D0
:1039C00009F02CF4E5DF862F089580E008958FEF4D
:1039D000089580919A0390919B03892B39F0E8DF39
:1039E00091E0811101C090E0892F089591E0FCCF12
:1039F000CF932091D212243088F4C62FBC0190912D
:103A00004A1120E6929FC00111248F5A9E4E0F94B6
:103A10005A228C2F2FDF81E0CF91089580E0FCCFD8
:103A2000AF92BF92CF92DF92EF920F931F93CF93FB
:103A3000DF93CDB7DEB760970FB6F894DEBF0FBE49
:103A4000CDBF5C018B012FDFE090FA128DE4C82E10
:103A500085E0D82E84E0E89EF0011124E55EFD4F5C
:103A60002081318142815381F501608171818281A0
:103A700093810F945A20F601248535854685578514
:103A80000F94E31FF60164877587868797871D86E5
:103A90001E861F86188A80819181A281B3818983C5
:103AA0009A83AB83BC8384819581A681B7818D8302
:103AB0009E83AF83B88780859185A285B3858987EA
:103AC0009A87AB87BC87AE01475F5F4FBE016B5FD4
:103AD0007F4FCE0101960E94D1D2CE010D966C018E
:103AE00029E535E0AE01475F5F4FBE016B5F7F4F59
:103AF0000C970E94FEC3E1DE0E944BD160960FB688
:103B0000F894DEBF0FBECDBFDF91CF911F910F9113
:103B1000EF90DF90CF90BF90AF900895CF92DF925B
:103B2000EF920F931F93CF93DF93CDB7DEB76097DC
:103B30000FB6F894DEBF0FBECDBFE090FA12E2E1FF
:103B4000F3E180859185A285B385448155816681A5
:103B50007781008111812281338109831A832B832C
:103B60003C834D835E836F83788789879A87AB8791
:103B7000BC871D861E861F86188AAE01475F5F4F71
:103B8000BE016B5F7F4FCE0101960E94D1D2CE0164
:103B90000D966C010CE512E02EE133E1AE01475FBA
:103BA0005F4FBE016B5F7F4F0C970E94FEC3609614
:103BB0000FB6F894DEBF0FBECDBFDF91CF911F913E
:103BC0000F91EF90DF90CF900895CF93DF9380E037
:103BD0000E942FD2C7EAD4E0688379838A839B83CB
:103BE00081E00E942FD26C837D838E839F8382E04D
:103BF0000E942FD2688779878A879B87DF91CF9130
:103C000008958F929F92AF92BF92FF920F931F934E
:103C1000CF93DF9300D01F92CDB7DEB7F82E662387
:103C200051F01092BF031092BB031092BC0310928C
:103C3000BD031092BE030E9439EB4B015C018091E1
:103C4000BB039091BC03A091BD03B091BE03A5013D
:103C50009401281B390B4A0B5B0BDA01C901B7FD34
:103C600045C02091BF03F7FC13C04F2D0F2C000C53
:103C7000550B4C5F5F4F822F022E000C990B48179B
:103C80005907A4F184EF91E0A0E0B0E02F1524F4EF
:103C900088EE93E0A0E0B0E0880D991DAA1DBB1D41
:103CA0008093BB039093BC03A093BD03B093BE036A
:103CB000022F017010E024E2209FC001219F900D8F
:103CC000901B112480599C4F9C838B8382E390E04E
:103CD0009A838983BE016D5F7F4FCE0101960E945A
:103CE000E5E38091BF038F5F8093BF030F900F9038
:103CF0000F900F90DF91CF911F910F91FF90BF9088
:103D0000AF909F908F9008952F923F924F925F9225
:103D10006F927F928F929F92AF92BF92CF92DF92DB
:103D2000EF92FF920F931F93CF93DF9300D000D0B9
:103D3000CDB7DEB79A8389830E9439EBA981BA8116
:103D40001696CD90DD90ED90FC901997C114D1049A
:103D5000E104F10409F010C31C962C911C97222356
:103D600009F44DC01A96EC911A9721501C962C9389
:103D70001C9721E02E0F1A962C931A971D963C91B2
:103D80001D97231302C01A961C92F0E03196EE0F95
:103D9000FF1FEE0FFF1F29813A81E20FF31FC2843C
:103DA000D384E484F584D9011296CD92DD92ED920C
:103DB000FC9215976C0D7D1D811D911DF901668387
:103DC00077838087918784819581892BC1F0FFB7A4
:103DD000FD83F894A981BA8112962D903C90139797
:103DE0002101712C612C14960D911C918091460239
:103DF0008532F1F08F3F09F497C0FD81FFBF269611
:103E00000FB6F894DEBF0FBECDBFDF91CF911F91EB
:103E10000F91FF90EF90DF90CF90BF90AF909F9069
:103E20008F907F906F905F904F903F902F9008956C
:103E3000EBEFFBE2B491BE83B7FDDFCF61E085E23B
:103E40000E9400EA9E81992321F0AE81A23009F000
:103E5000BEC14801B12CA12C60E072E18AE790E07C
:103E6000A50198010F94A71F29833A834B835C8394
:103E700069017A01B1E0CB1AD108E108F108EFEF4E
:103E8000CE16D104E104F10409F00CF470C160E431
:103E900072E48FE090E0A50198010F94A71F6901DB
:103EA0007A01F1E0CF1AD108E108F1082E81223021
:103EB00009F011C182E03FEFC316D104E104F1041F
:103EC00009F00CF4B8C260E970ED83E090E0A50160
:103ED00098010F94A71F69017A0181E0C81AD108DF
:103EE000E108F10883E09FEFC916D104E104F10471
:103EF00009F00CF4A0C268E478EE81E090E0A5013E
:103F000098010F94A71F69017A0181E0C81AD108AE
:103F1000E108F1089FEFC916D104E104F10411F0A2
:103F20000CF0FDC084E087C285E280934602EBEF8F
:103F3000FBE224912E83822F2F3F09F45ECF2230A3
:103F400009F469C060F4222381F1213009F445C0ED
:103F500087FD53CF61E085E20E9400EA76CF3E8183
:103F6000343009F49AC008F478C0353089F71092DB
:103F7000200110922101809121018860809321010C
:103F800080912101816080932101EEE4FBE2E491C4
:103F9000F0E0EE0FFF1FEB50F54D85919491E4E9B1
:103FA000FBE2E491E0939C0349CF14BC15BC84B5BB
:103FB000826084BD85B5816085BDEEE4FBE2E4915D
:103FC000F0E0EE0FFF1FEB50F54D85919491E4E981
:103FD000FBE2E491E093A00331CF109280001092B5
:103FE00081008091810088608093810080918100B0
:103FF000816080938100EEE4FBE2E491F0E0EE0F5B
:10400000FF1FEB50F54D85919491E4E9FBE2E491BB
:10401000E0939F0313CF1092B0001092B1008091F3
:10402000B00082608093B0008091B1008160809385
:10403000B100EEE4FBE2E491F0E0EE0FFF1FEB5085
:10404000F54D8591949190934A0C8093490CE4E945
:10405000FBE2E491E0934B0CF1CE109290001092B1
:1040600091008091910088608093910080919100EF
:10407000816080939100EEE4FBE2E491F0E0EE0FCA
:10408000FF1FEB50F54D85919491E4E9FBE2E4913B
:10409000E0939E0383E08E83D1CE1092A000109215
:1040A000A1008091A10088608093A1008091A1006F
:1040B00081608093A100EEE4FBE2E491F0E0EE0F7A
:1040C000FF1FEB50F54D85919491E4E9FBE2E491FB
:1040D000E0939D03B3CEAFEFCA16D104E104F1041F
:1040E00009F00CF472C068E478EE81E090E0A5017C
:1040F00098010F94A71F69017A01B1E0CB1AD1088A
:10410000E108F108EE81EE2309F461C1EFEFCE166C
:10411000D104E104F10411F00CF062C103CF64E2B8
:1041200074EF80E090E0A50194010F94A71F69014E
:104130007A01F1E0CF1AD108E108F10885E02FEF0C
:10414000C216D104E104F10409F008F474C162E17B
:104150007AE780E090E0A50194010F94A71F690120
:104160007A01A1E0CA1AD108E108F1084BC181E047
:10417000AE81A11160C195B5987F892B85BD2FEFC8
:104180003FEFA90145284628472809F059C0BE81BC
:10419000B23009F4E1C00CF0C8C0BB2309F4CDC0B3
:1041A000B13009F02ACED0928900C09288002093C5
:1041B000AD033093AE034093AF035093B0038091AF
:1041C0006F00826080936F0018CE82E0D1CFB12C57
:1041D000A12C60E072E18AE790E0A50198010F94BC
:1041E000A71F69017A01B1E0CB1AD108E108F108F3
:1041F00091E0C114D104E1E0EE06F10484F068E43A
:1042000078EE81E090E0A50198010F94A71F690165
:104210007A01F1E0CF1AD108E108F10893E02E818C
:104220002130D9F480918100887F892B809381008F
:104230002FEF3FEFA90145284628472809F4B3CFBF
:104240009801220F331FD1010F94D31F28EE33E0C2
:1042500040E050E00F94851F9ACF3E813330F9F44F
:1042600080919100887F892B809391002FEF3FEF01
:10427000A90145284628472819F7D0929900C092ED
:1042800098002093A9033093AA034093AB03509363
:10429000AC0380917100826080937100AECD8E81FD
:1042A0008430F9F48091A100887F892B8093A1004C
:1042B0002FEF3FEFA90145284628472809F6D0925D
:1042C000A900C092A8002093A5033093A6034093B1
:1042D000A7035093A80380917200826080937200BC
:1042E0008CCDAE81A53009F04ACF80912101887F25
:1042F000892B809321012FEF3FEFA9014528462804
:10430000472809F09DCFD0922901C092280120931F
:10431000A1033093A2034093A3035093A40380917D
:10432000730082608093730068CDEE81E43039F2CF
:104330000CF4A3CFE53039F360CDC7BC2093B103B3
:104340003093B2034093B3035093B40380916E0053
:10435000826080936E0051CDC092B30020934C0CCC
:1043600030934D0C40934E0C50934F0C8091700045
:1043700082608093700041CD6C197D098E099F0980
:1043800097FD3DCD4098A981BA8116961D921D9248
:104390001D921C92199733CD84E0EFEFCE16D10415
:1043A000E104F10409F008F4E6CEC980DA80EB807C
:1043B000FC809AE0F594E794D794C7949A95D1F746
:1043C000B1E0CB1AD108E108F10885E0D4CE83E052
:1043D000BFEFCB16D104E104F10409F00CF4CBCE0D
:1043E00062E17AE780E090E0A50194010F94A71FB5
:1043F00069017A0181E0C81AD108E108F1089E81BB
:10440000992351F286E02FEFC216D104E104F104A2
:1044100091F088F0C980DA80EB80FC808AE0F59426
:10442000E794D794C7948A95D1F7F1E0CF1AD108D1
:10443000E108F10887E09091B100987F892B809383
:10444000B1009DCE80919A0390919B03009731F02B
:104450004AE050E070E060E00D949B1760E070E08F
:10446000CB010895FC0120E03EE2DB014D91BD014E
:10447000403249F0283011F430833196DB01119736
:104480004C91408331962F5F2B3079F7108208953D
:1044900061E0FC0180810C9434E98EBD0DB407FE0F
:1044A000FDCF08958FEF8EBD0DB407FEFDCF8EB505
:1044B00008958F929F92AF92BF92EF92FF920F93C7
:1044C0001F93CF937C01C62F49015A01FC019281B1
:1044D000892F806A86958CBD90FD03C081E096305F
:1044E00009F480E08DBD60E0F70180810E9434E92D
:1044F0008CE291E00E948EEB8C2F8064CEDF08E18D
:1045000010E0D501C401002E04C0B695A79597957B
:1045100087950A94D2F7C1DF08501109083FFFEFD1
:104520001F0779F785E9CC2321F087E8C83009F027
:104530008FEFB3DFCC3009F4B5DFC0E0B3DFF701B4
:10454000838387FF04C0CF3F11F0CF5FF7CFCF91B8
:104550001F910F91FF90EF90BF90AF909F908F9021
:1045600008950F931F93CF93DF93EC0189018C8102
:10457000833039F089E0440F551F661F771F8A95F5
:10458000D1F79A01AB0168E1CE0193DF882319F0DE
:1045900086E0898335C08EEF8EBDF801C8019E5F2D
:1045A0000DB407FEFDCF20812EBD0DB407FEFDCF5B
:1045B00021812EBD3296E817F90791F70DB407FE59
:1045C000FDCF8FEF6ADF8FEF68DF6CDF8B838F713A
:1045D000853091F488E592E00E948EEB182F87E1F8
:1045E0001123B9F220E030E0A9016DE0CE0161DFD6
:1045F000882351F086E1CDCF83E18983CE0148DF66
:10460000CE0146DF10E005C04DDF8111F3CFCE01B2
:104610003FDF812FDF91CF911F910F910895CF93AD
:1046200080912A15C1E0882399F04091221550917C
:104630002315609124157091251522E233E18091B4
:104640002B1590912C158DDFC82F811104C0C0E06F
:104650008C2FCF9108954091261550912715609188
:10466000281570912915411551056105710589F0CD
:1046700022E233E180912B1590912C1572DF882373
:1046800031F31092261510922715109228151092CA
:10469000291510922A15DCCFEF92FF920F931F93EA
:1046A000CF93DF93EC0179018C81833039F089E07D
:1046B000440F551F661F771F8A95D1F79A01AB01EA
:1046C00061E1CE01F6DE882331F084E08983CE01FA
:1046D000DFDE80E034C00E9439EB8B01E3DE8B83A8
:1046E0008F3F71F40E9439EB601B710B6D3271408A
:1046F000A8F381E18983CE01CBDE8FEFCEDEE9CF57
:104700008E3F11F08FE0F6CF8FEF8EBDF701D7010E
:10471000A150BE4F0DB407FEFDCF9EB591938EBD47
:10472000AE17BF07B9F70DB407FEFDCF8EB58C935A
:10473000B9DEB8DECE01ACDE8FEFAFDE81E0DF9117
:10474000CF911F910F91FF90EF900895CF92DF923C
:10475000EF92FF92CF936B017C01C42F80912215C1
:1047600090912315A0912415B09125158C159D05C8
:10477000AE05BF05F1F053DF811108C0C0E08C2FFA
:10478000CF91FF90EF90DF90CF90089522E233E138
:10479000B701A60180912B1590912C157DDF882300
:1047A00069F3C0922215D0922315E0922415F0925D
:1047B0002515CC2321F081E080932A15E0CFC1E0BC
:1047C000DECF4F925F926F927F928F929F92AF92C5
:1047D000BF92CF92DF92EF92FF920F931F93CF93EE
:1047E000DF93EC01423051056105710590F480E0E2
:1047F000DF91CF911F910F91FF90EF90DF90CF90BD
:10480000BF90AF909F908F907F906F905F904F90F0
:10481000089589859A85AB85BC850196A11DB11D3A
:1048200084179507A607B70710F38F898031C1F564
:10483000852E962EA72EBB248B899C89AD89BE8997
:10484000880E991EAA1EBB1E280139016A017B0130
:1048500041E0C501B4017ADF882349F29F89903194
:1048600081F5DD24EE24FF24F601EE0FFF1FEE5D3F
:10487000FC4E118300839A89923008F4B9CF4D81A0
:104880005E816F817885840E951EA61EB71E80926C
:10489000261590922715A0922815B0922915A8CF19
:1048A000803209F0A4CF8B899C89AD89BE894A01E9
:1048B0005B01E7E0B694A79497948794EA95D1F7C3
:1048C000BFCFE894C7F8DD24EE24FF24F601EE0FF5
:1048D000FF1FEE0FFF1FEE5DFC4E40825182628291
:1048E0007382C9CFCF92DF92EF92FF920F931F9303
:1048F000CF93DF93FC0181859285A385B4850196D2
:10490000A11DB11D84179507A607B70750F480E0D5
:10491000DF91CF911F910F91FF90EF90DF90CF909B
:10492000089587898031A9F5BB27A72F962F852F5A
:10493000C388D488E588F6888C0D9D1DAE1DBF1DEB
:10494000E9016A017B018F014091221550912315E5
:10495000609124157091251584179507A607B70750
:1049600049F5F8018789803161F5B701A60155271E
:1049700066277727440F551F4E5D5C4EFA018081F4
:104980009181B0E0A0E088839983AA83BB8381E012
:10499000BFCF803209F0BBCFC388D488E588F688C2
:1049A000DB01CA01C7E0B695A79597958795CA958B
:1049B000D1F7C2CF40E0BC01CD01C8DE8111D1CF1B
:1049C000A6CFB701A6014F77552766277727440F53
:1049D000551F440F551F4E5D5C4EFA018081918139
:1049E000A281B381BF70CFCF4F925F926F927F92BF
:1049F000AF92BF92CF92DF92EF92FF920F931F93ED
:104A0000CF93DF9300D01F92CDB7DEB78C014983DF
:104A10005A836B837C835901C12CD12C7601412CA4
:104A200082E0582E612C712C49815A816B817C81E6
:104A30009E012F5F3F4FC80155DF882319F1F80110
:104A40008585A301920104C0220F331F441F551F07
:104A50008A95D2F7DA01C901C80ED91EEA1EFB1EDB
:104A600049815A816B817C8187898031F1F481E0B1
:104A7000483F5F4F61057105B8F2F501C082D182F0
:104A8000E282F3820F900F900F900F90DF91CF9101
:104A90001F910F91FF90EF90DF90CF90BF90AF905C
:104AA0007F906F905F904F90089581E0483F5F4FF7
:104AB0006F4F7F4008F4B8CFE0CF0F931F93CF9391
:104AC000DF93FC012381222331F080E0DF91CF913D
:104AD0001F910F9108958B01EC01FB0187898031B3
:104AE00039F582E08B831D8A1E8A1F8A188E808D7D
:104AF000918DB0E0A0E025E0880F991FAA1FBB1F91
:104B00002A95D1F7898B9A8BAB8BBC8B1A8F098F27
:104B100081E08983188619861A861B861C821D826D
:104B20001E821F82188A1C861D861E861F86CECF77
:104B3000803259F683E08B83428D538D648D758D61
:104B40004D8B5E8B6F8B788F9E012F5E3F4FC80120
:104B50004BDF8111DBCFB9CF8F929F92AF92BF9283
:104B6000CF92DF92EF92FF920F931F93CF93DF9339
:104B7000EC018B8181110EC080E0DF91CF911F91FC
:104B80000F91FF90EF90DF90CF90BF90AF909F90EC
:104B90008F90089509891A892B893C890417150774
:104BA0002607370748F34A015B01823031F48886D3
:104BB0009986AA86BB8681E0E0CF81149104A10486
:104BC000B10449F4188619861A861B861C821D8238
:104BD0001E821F82F0CF088519852A853B85E98DC5
:104BE000FA8D858590E00996B901A80141505109D7
:104BF00061097109082E04C0769567955795479508
:104C00000A94D2F775016401E1E0CE1AD108E108F7
:104C1000F10804C0F694E794D794C7948A95D2F724
:104C2000C416D506E606F70620F0012B022B032B4F
:104C300009F58D899E89AF89B88D8C839D83AE835C
:104C4000BF838E010C5F1F4FC114D104E104F10436
:104C500009F4ADCF4C815D816E817F819801898D92
:104C60009A8D40DE91E0C91AD108E108F10881115E
:104C7000EBCF82CFC41AD50AE60AF70AE2CF40E0AA
:104C800050E0BA0169CF3F924F925F926F927F924C
:104C90008F929F92AF92BF92CF92DF92EF92FF924C
:104CA0000F931F93CF93DF93CDB7DEB72C970FB63B
:104CB000F894DEBF0FBECDBF5C01DC0159968D902C
:104CC0009C90F40181859285A385B4859C01AD01FA
:104CD0002F5F3F4F4F4F5F4F29873A874B875C8746
:104CE000D50114964D905D906D907C90179741146E
:104CF00051046104710409F458C0BFEF4B1A5B0AF8
:104D00006B0A7B0A312C730162011D821E821F8295
:104D10001886F40181859285A385B4852D813E8115
:104D20004F815885281739074A075B0708F054C098
:104D300089859A85AB85BC858C159D05AE05BF051B
:104D400050F482E0C82ED12CE12CF12C92E0492EB7
:104D5000512C612C712C9E012F5F3F4FB701A60192
:104D6000C401C0DD8823C1F189819A81AB81BC81F6
:104D7000892B8A2B8B2B01F1260137019FEF491AD2
:104D8000590A690A790A2D813E814F8158852F5F22
:104D90003F4F4F4F5F4F2D833E834F8358873FEFE9
:104DA000C31AD30AE30AF30AB4CF40805180628069
:104DB000738033243394A7CFC414D504E604F704D6
:104DC00011F70FEF1FEF2FEF3FE0B701A601C4016E
:104DD000F8DC782E81111AC0712C872D2C960FB615
:104DE000F894DEBF0FBECDBFDF91CF911F910F9121
:104DF000FF90EF90DF90CF90BF90AF909F908F90FB
:104E00007F906F905F904F903F900895F50144819F
:104E1000558166817781411551056105710531F034
:104E200097018601C401CDDC8823B1F2D501149627
:104E3000CD92DD92ED92FC921797332051F0D7017D
:104E4000C6010196A11DB11DF40180839183A28347
:104E5000B383F50185899689A789B08D892B8A2B23
:104E60008B2B09F0BACFC58AD68AE78AF08E81816A
:104E700080688183B2CFCF93DF93EC01462F4170DE
:104E80006C857D858E859F8561DC882351F08889BE
:104E900020E2829FC00111248E5D9C4EDF91CF9154
:104EA000089590E080E0FACFCF93DF93EC018B81FF
:104EB000882339F1898187FF21C061E0CE01DBDFE2
:104EC000FC01892BF1F08081853ED9F08B81823005
:104ED00040F489899A89AB89BC89848F958FA68F84
:104EE000B78F8D899E89938F828F8D899E89AF8997
:104EF000B88DB58BA48B89818F778983DF91CF9112
:104F00008ECB81E0888380E0DF91CF9108952F924E
:104F10003F924F925F926F927F928F929F92AF9249
:104F2000BF92CF92DF92EF92FF920F931F93CF9396
:104F3000DF9300D01F92CDB7DEB78C014B011A0171
:104F4000DC0113968C911397813009F0C7C011963C
:104F50008C9181FFC3C082FDAEC06101D80118965B
:104F60004D915D916D917C911B97C114D10409F411
:104F700014C159968D919C915A97FC0174802FEF22
:104F8000270D2A013B0139E07694679457944794A2
:104F90003A95D1F7722E74207A01F1E0FF22711058
:104FA0001FC0E114F104E1F414964D915D916D91EF
:104FB0007C911797411551056105710509F094C061
:104FC00055968D919D910D90BC91A02D0097A105B6
:104FD000B10509F0A1C0C80156DE882309F47EC0DE
:104FE00080E092E08E199F0956018C159D0508F40A
:104FF0005C01D80159964D915C915A9714968D9108
:105000009D910D90BC91A02D0297A109B109FA01C3
:10501000258504C0880F991FAA1FBB1F2A95D2F7A8
:105020004685578560897189840F951FA61FB71F14
:105030009C01AD01270D311D411D511D29013A0172
:10504000A11432E0B30609F075C080912215909149
:105050002315A0912415B0912515481659066A0606
:105060007B0669F410922A158FEF9FEFDC01809385
:10507000221590932315A0932415B0932515940120
:10508000B301A20180912B1590912C156ADA882327
:1050900029F1F80180859185A285B3858A0D9B1D34
:1050A000A11DB11D80879187A287B3878A0C9B1CA5
:1050B000CA18DB0853CFF801418952896389748982
:1050C00080859185A285B385481759076A077B07B4
:1050D00009F443CFC80140DD81113FCF81E0D80101
:1050E0008C938FEF9FEF6FC09E012F5F3F4FFADBD6
:1050F0008823A1F389819A81AB81BC81F801218D3C
:10510000328DF9012789203169F4883FFFEF9F072D
:10511000A105B10508F05FCFF80184839583A683CC
:10512000B7835ECF883F2FEF9207A2072FE0B20729
:1051300098F351CFE114F10449F5D80118964D9137
:105140005D916D917C911B9751968D919D910D90E4
:10515000BC91A02D481759076A077B07B8F05FDAA2
:10516000882309F4BBCF81E080932A154092221551
:10517000509223156092241570922515A501B40153
:10518000C7018E5D9C4E0F94182283CF41E0C3016E
:10519000B201DCDA8111F2CFA1CFF80181899289C5
:1051A000A389B48984179507A607B70738F48181C6
:1051B000418B528B638B748B80688183F801818172
:1051C00083FD18C0C1010F900F900F900F90DF91D9
:1051D000CF911F910F91FF90EF90DF90CF90BF90F4
:1051E000AF909F908F907F906F905F904F903F9087
:1051F0002F900895C80158DE8111E4CF6FCFCF936F
:10520000DF931F92CDB7DEB7698341E050E0BE0166
:105210006F5F7F4F04967BDE0F90DF91CF910895F3
:10522000CF93DF93EC0140DE1B82DF91CF91089595
:10523000CF93DF93EB01FC012381211104C080E0B7
:10524000DF91CF9108952250223028F48FE2888395
:10525000198281E0F5CF60E00EDE009781F3DC017A
:1052600060E080E09EE22D91203299F0883031F4A8
:105270009E01260F311DF90190836F5F9E01260F5D
:10528000311DAD0141505109FA014081F9014083BE
:105290006F5F8F5F8B3039F7FE01E60FF11D1082D3
:1052A000D8CF0F931F93CF93DF938B01EA01DB01DC
:1052B0006D917C910496BCDFD801ED91FC91119722
:1052C00088819081992349F08D38A0F43196ED932F
:1052D000FC9388818F5F8883EFCF8D3858F48FE2FD
:1052E0008083F801808191810196918380838881F8
:1052F0008F5F8883DF91CF911F910F9108952F9237
:105300003F924F925F926F927F928F929F92AF9255
:10531000BF92CF92DF92EF92FF920F931F93CF93A2
:10532000DF9300D01F92CDB7DEB79C838B834B01F8
:105330007A01DC0113968C91811119C08FEF9FEFD8
:105340000F900F900F900F90DF91CF911F910F91C1
:10535000FF90EF90DF90CF90BF90AF909F908F9095
:105360007F906F905F904F903F902F900895EB81CA
:10537000FC81818180FFE2CF0189128923893489F0
:105380004085518562857385C701B0E0A0E02801A2
:105390003901441A550A660A770A481659066A06F8
:1053A0007B0618F47801E41AF50A67018B819C8169
:1053B00004969A838983612C32E0732EC114D10440
:1053C00009F4B4C0AB81BC8118964D915D916D918B
:1053D0007C911B975A01B1E0BB22EB81FC81818D4E
:1053E000928D1A012B0129E0569447943794279403
:1053F0002A95D1F72381223089F5DC015A966D91E7
:105400007D918D919C915D97620D731D841D951DFD
:1054100083010A191B09C016D10608F4860101157B
:10542000B2E01B0771F420912215309123154091B1
:10543000241550912515621773078407950709F005
:1054400057C040E083D9882309F478CFB5016E5D59
:105450007C4EA801C4010F94182255C0FC01148190
:1054600011501221A114B10481F411110EC0452B69
:10547000462B472B79F5EB81FC8185899689A78995
:10548000B08D84839583A683B783AB81BC81599605
:10549000ED91FC915A9714966D917D918D919C910F
:1054A00017976250710981099109258504C0660F1B
:1054B000771F881F991F2A95D2F72685378540893F
:1054C0005189620F731F841F951F610F711D811D0C
:1054D000911D9ECFAB81BC8114964D915D916D91D4
:1054E0007C91179729813A81FDD98111CECF26CFA2
:1054F0009401AB01BC0180912B1590912C15CCD857
:10550000882309F41BCF800E911EEB81FC818085DE
:105510009185A285B385800F911FA11DB11D808744
:105520009187A287B387C01AD10A48CFC70108CF95
:10553000DF92EF92FF920F931F93CF93DF938C0133
:10554000EB017A018DE0D82E40E250E0BE01C801A7
:10555000D6DE8032910571F021E0892B09F420E03C
:10556000822F8195DF91CF911F910F91FF90EF9046
:10557000DF90089528812223F1F1253E11F02E328B
:1055800031F4E114F10401F3F7011082DDCFE114ED
:10559000F10439F13B853F733F3019F54A8D5B8D3E
:1055A000452BF9F42F713FEF320F3230D0F42150F8
:1055B000330BD29EC001D39E900D1124D701A80FAA
:1055C000B91FFE0120E0AD01253078F431813D9313
:1055D0002F5F32962D30C1F7288126FF02C0FA01D5
:1055E00015862B8523FDB0CFBDCF2B3010F4348131
:1055F000EECF3681ECCF80E0B5CF4F925F926F92C5
:105600007F92AF92BF92CF92DF92EF92FF920F9371
:105610001F93CF93DF931F92CDB7DEB78C017B0131
:105620005A01C22EDB0159968D919C91F801928FFF
:10563000818FCB0124DB712CF70180859185A285B8
:10564000B385418952896389748984179507A607B0
:10565000B70708F051C055E0B695A795979587957F
:105660005A95D1F7F82FFF70DF2ED70113968C9142
:10567000823010F480E0D9C041E050E0BE016F5F9D
:105680007F4FC7013CDE0197A9F7F701808591851F
:10569000A285B3854F96A11DB11D80879187A287F2
:1056A000B387F0E2DF9EB00111246E5D7C4E611580
:1056B000710501F3DB018C91882341F0853E09F0EF
:1056C0004BC0772029F077247394B6CF71100EC0A9
:1056D0008091221590912315A0912415B091251544
:1056E000F80184879587A687B787D08ADB018C91DC
:1056F0008111E9CF772473948C2D8274823409F060
:10570000B9CF772009F4A1C0F801D08861E0C801C1
:10571000B2DB009709F4AECF20E2DC011D922A959E
:10572000E9F72BE0F501DC0101900D922A95E1F7F4
:1057300021E238E2FC01318B208B40E058E05787B2
:105740004687338B228B318F208F578B468B0E945D
:105750000F23811109C08ECF4BE050E0C5010F949B
:105760000B22892B09F068CFF0E2DF9ED0011124D3
:105770009D012E5D3C4EF9018385817121F08C2DB8
:10578000827109F0FAC0F801818D928D4091221545
:1057900050912315609124157091251544875587E4
:1057A00066877787D08AFD01EE5DFC4E4488558878
:1057B000712C612C320155244424D80155964D9208
:1057C0005D926D927C925897428D538D70E060E0AF
:1057D000442955296629772955964D935D936D93F4
:1057E0007C935897D9011B962C91287109F0B8C069
:1057F000848D958DA68DB78DF801818B928BA38BAF
:10580000B48B81E083838C2D8F70F80181831482A7
:10581000158216821782108611861286138681E001
:10582000C4FE03C0C8010E9451E30F90DF91CF91E5
:105830001F910F91FF90EF90DF90CF90BF90AF90AE
:105840007F906F905F904F900895D70113968C9141
:105850001397823009F40ECF51968D919D910D9042
:10586000BC91A02D803E9F4FAF41B10508F002CF03
:10587000C70109DA882309F4FDCE0E940F2388238B
:1058800009F4F8CED7015996ED91FC915A971496E8
:105890004D905D906D907C901797B2E04B1A510837
:1058A00061087108858504C0440C551C661C771C72
:1058B0008A95D2F786859785A089B189480E591EA9
:1058C0006A1E7B1E81E080932A1540922215509219
:1058D00023156092241570922515E2E2F3E180E031
:1058E00092E0DF019C011D9221503040E1F7DD2460
:1058F000D394D7015996ED91FC918481D81698F4F0
:1059000022E233E1B301A2014D0D511D611D711D54
:1059100080912B1590912C150E94B122882309F4B7
:10592000A9CED394E6CF258580E092E0A0E0B0E058
:1059300004C0880F991FAA1FBB1F2A95D2F7F70131
:105940004189528963897489840F951FA61FB71FE7
:10595000818B928BA38BB48B82E293E1D12CDCCE32
:10596000203159F498012F5E3F4F3ED8882329F00B
:1059700084E0D80113968C9346CFD80113961C92DD
:1059800079CE4F925F926F927F928F929F92AF9259
:10599000BF92CF92DF92EF92FF92CF934B015C01C7
:1059A00069017A0120E030E040E052E40F94E21F08
:1059B0002B013C012FE632E143E85AEB0F944621DC
:1059C00087FD50C021E230E048EC53E4C301B2014E
:1059D0000F945B1918160CF445C020E030E040E04D
:1059E00050E4C701B6010F94E31F2B013C012FE6E1
:1059F00032E143E85AEB0F94462187FD33C021E2A0
:105A000030E048EC53E4C301B2010F945B1918165F
:105A10004CF12AEF3EEF4BE052E4C501B4010F9484
:105A2000462187FD1FC021E230E846EB53E4C50163
:105A3000B4010F945B191816ACF02AEF3EEF4BE05F
:105A400052E4C701B6010F94462187FD0BC0C1E0A7
:105A500021E230E846EB53E4C701B6010F945B192D
:105A600018160CF4C0E08C2FCF91FF90EF90DF90D0
:105A7000CF90BF90AF909F908F907F906F905F90EE
:105A80004F9008955F9A809101138E7F8093011348
:105A90008A9A809101138D7F809301138091080170
:105AA0008095817080930601809101138B7F809394
:105AB0000113129A08954F925F926F927F928F9284
:105AC0009F92AF92BF92CF92DF92EF92FF920F938D
:105AD0001F93CF93DF93EC0160915D0570915E059C
