:100000000C94CA300C94FB300C94FB300C94FB30F5
:100010000C94FB300C94FB300C94FB300C94FB30B4
:100020000C94FB300C94FB300C94FB300C94FB30A4
:100030000C94FB300D94ED5B0C94FB300C94FB3076
:100040000C94FB300C94239C0C94FB300C94FB30F0
:100050000C94FB300C94FB300C943E9A0D94675F2B
:100060000C94FB300D940A1B0C94FB300C94FB3069
:100070000C94FB300C94FB300C94FB300C94FB3054
:100080000C94EBA40C94FB300C94FB300C94FB30E0
:100090000C94FB300C94FB300C94FB300C94FB3034
:1000A0000C94FB300C94FB300C94BDA40C94FB30EE
:1000B0000C94FB300C94FB300C94FB300C948FA40C
:1000C0000C94FB300C94FB300C94FB300C94FB3004
:1000D0000C94FB300C94FB300C94FB300C94FB30F4
:1000E0000C94FB3005A84CCDB2D44EB93836A902D9
:1000F0000C50B9918688083CA6AAAA2ABE00000026
:10010000803F07634236B79BD8A71A39685618AEA6
:10011000BAAB558C1D3CB7CC5763BD6DEDFD753E3C
:10012000F6177231BF000000803F08000000BE9249
:100130002449123EABAAAA2ABECDCCCC4C3E00002C
:100140000080BEABAAAAAA3E00000000BF000000CB
:10015000803F0000000000084178D3BB4387D113E3
:100160003D190E3CC3BD4282AD2B3E68EC8276BE8B
:10017000D98FE1A93E4C80EFFFBE01C4FF7F3F0055
:10018000000000000D942F720D944B5D0D94957B33
:100190000D94C6740D94825D0D94A14F0D9428505A
:1001A0000D947B570D942D500D9468570D94E27368
:1001B0000D94AE6C0D94095D0D9416500D94FF5C7A
:1001C0000D94785D0D94A5520D94135D0D9412500D
:1001D0000D94FA5C0D9462570D9471570D94F25C76
:1001E0000D945A5D0D9402500D94A24F0D94205021
:1001F0000D94375D0D9424500D94FB4F0D9476575C
:100200000D948B730D9458570D94F34F0D946F7498
:100210000D9434730D941D5D0D9418740D94B050AD
:100220000D941A500D9486720D946E570D94F76BC1
:100230000D9478570D942A660D94645D0D94255D98
:100240000D9408500D9465570D94A8520D94A7581D
:100250000D942D5D0D94FF4F0D9462680D948C5D8F
:100260000D94ED4F0D940C500D947E750D946B57BD
:100270000D94356A0D94F74F0D9432500D942E5015
:100280000D94415D0D949F4F0D94CB640D94DD72E0
:100290000D946E5D0D94A0670D94D07B4E414E4938
:1002A0004E495459494E46CDCCCC3D0AD7233C1734
:1002B000B7D13877CC2B329595E6241FB14F0A0081
:1002C0000020410000C84200401C4620BCBE4CCA71
:1002D0001B0E5AAEC59D7400407A10F35A00A072EE
:1002E0004E18090010A5D4E80000E8764817000071
:1002F000E40B54020000CA9A3B000000E1F505003F
:100300000080969800000040420F000000A0860187
:10031000000000102700000000E803000000006457
:1003200000000000000A00000000000100000000C2
:10033000002C76D888DC674F0823DFC1DFAE59E197
:10034000B1B796E5E3E453C63AE651997696E8E606
:10035000C28426EB898C9B62ED407C6FFCEFBC9CD9
:100360009F40F2BAA56FA5F490055A2AF75C936BEB
:100370006CF9676DC11BFCE0E40D47FEF520E6B5A6
:1003800000D0ED902E0300943577050080841E0880
:100390000000204E0A000000C80C333333330F989E
:1003A0006E12831141EF8D2114893BE65516CFFE65
:1003B000E6DB18D1844B381BF77C1D901DA4BBE4F1
:1003C00024203284725E228100C9F124ECA1E53D33
:1003D000270900000A010008000A01000A090000BC
:1003E000000A0008003A2000454550524F4D204475
:1003F000756D703A0A002066726F6D2063757272B7
:10040000656E74206D6573682E0A00537562747290
:10041000616374696E67206D65736820696E20730F
:100420006C6F7420003F557365203020746F20007E
:100430003F496E76616C69642073746F72616765A1
:1004400020736C6F742E0A003F5573652030207442
:100450006F20003F53746F7261676520736C6F7417
:1004600020232072657175697265642E0A003F450C
:100470004550524F4D2073746F72616765206E6FE7
:100480007420617661696C61626C652E0A004D654D
:1004900073682045646974696E672053746F707067
:1004A000656400446F6E652045646974696E6720F9
:1004B0004D6573680A00446F6E6520456469746910
:1004C0006E67204D6573680046696E652054756ED1
:1004D000696E67204D6573680028582C5929206F74
:1004E000757473696465207072696E7461626C659D
:1004F000207261646975732E0A004F6666736574B5
:10050000206F7574206F6620626F756E64732E2085
:10051000283020746F2031306D6D290A0A00E00305
:10052000DB03D603D1035D0A0062656420706C6151
:100530006E65206E6F726D616C203D205B00436FB5
:10054000756C64206E6F7420636F6D706C6574657C
:10055000204C53462100436F727265637465645F7B
:100560005A3D003F4572726F722070726F62696E01
:100570006720706F696E742E202041626F727469FB
:100580006E67206F7065726174696F6E2E0A00432A
:100590006F727265637465645F5A3D00436F727277
:1005A00065637465645F5A3D00436F72726563747E
:1005B00065645F5A3D00646F6E650A00496E73752D
:1005C0006666696369656E7420646174610A0045DA
:1005D00078747261706F6C6174696E67206D657399
:1005E000682E2E2E0025753A2530327500253032C2
:1005F000753A253032750025756420253032753AFC
:100600002530327500202020202020005A0059007B
:1006100020202020005800092000000000000000D9
:100620000000000000003FFFF0000000000000009C
:100630000000000000380070000000000000000012
:100640000000000030FC300000000000000000004E
:1006500000000020FC10000000000000000000006E
:1006600000002078100000000000000000000000E2
:10067000002030100000000000000000000000001A
:100680002C00D03FC0000000000000002082002E9F
:1006900031D07FE0000000000000001041002F7BFF
:1006A000D07FE0000000000000001041002F7BD050
:1006B0007FE0000000000000002082002E31D03FCB
:1006C000C0000000000000004104002C00D03FC02A
:1006D000000000000000008208002030107FE000D1
:1006E0000000000000008208002078107FE0000079
:1006F000000000000041040020FC107FE00000002A
:100700000000000020820030FC301F80000000004C
:100710000000000000003800700F00000000000022
:100720000000FFFFC03FFFF00600000000000000D7
:1007300000FFFFC0000000000000000000000000FB
:100740000000003FFFF0000000000000000000007B
:1007500000003800700000000000000000000000F1
:1007600000318630000000000000000000000000A2
:100770002387100000000000000000000000002798
:1007800087900000000000000000000000002F879C
:10079000D00000000000000000000000002F03D087
:1007A0003FC0000000000000002082002030107FC9
:1007B000E0000000000000001041002078107FE001
:1007C000000000000000001041002078107FE000D1
:1007D0000000000000002082002030103FC0000018
:1007E00000000000004104002F03D03FC0000000C3
:1007F000000000008208002F87D07FE0000000008A
:100800000000008208002787907FE00000000000C1
:1008100000004104002387107FE00000000000007A
:10082000002082003186301F8000000000000000A0
:100830000000003800700F0000000000000000FF02
:10084000FFC03FFFF0060000000000000000FFFFB7
:10085000C000000041525445464143542055524285
:1008600041494E20435231307334205265616479DE
:100870002E005072696E74696E672E2E2E005072B3
:10088000696E7420706175736564004D3130362077
:1008900050256920532569004D3130392053256991
:1008A000004D31393020532569004D34323020530A
:1008B000300A473238205820590053746F70207026
:1008C00072696E7400526573756D65207072696E21
:1008D0007400506F7765722D4C6F7373205265638F
:1008E0006F766572790053746F7720424C546F7540
:1008F0006368004D32383020503020533930004486
:1009000065706C6F7920424C546F756368004D328E
:1009100038302050302053313000424C546F7563D2
:10092000682053656C662D54657374004D32383001
:1009300020503020533132300052657365742042AC
:100940004C546F756368004D32383020503020535E
:10095000313630004D61696E005072696E742061ED
:10096000626F72746564004D3231004E6F205344E3
:100970002063617264004368616E676520534420A0
:1009800063617264004D3231005072696E7420668A
:10099000726F6D2053440053746F70207072696ED3
:1009A0007400526573756D65207072696E740049CC
:1009B0006E69742E20534420636172640050617527
:1009C0007365207072696E7400436F6E74726F6C21
:1009D00000507265706172650054756E6500496EF5
:1009E000666F2073637265656E004261627973742D
:1009F0006570205A004D65736820456469746F7294
:100A0000004368616E67652066696C616D656E7430
:100A1000004368616E67652066696C616D656E7420
:100A2000004D363030204230004261627973746587
:100A300070205A00466C6F7700466C6F7700466CEA
:100A40006F770046616E2073706565640046616E65
:100A50002073706565640046616E2073706565641F
:100A6000004265640042656400426564004E6F7A2E
:100A70007A6C65004E6F7A7A6C65004E6F7A7A6C8C
:100A80006500466164652048656967687400466171
:100A9000646520486569676874004661646520483C
:100AA00065696768740053706565640053706565B7
:100AB00064005370656564004D61696E0050726535
:100AC0006865617420504C4120456E640050726529
:100AD0006865617420504C41204265640050726525
:100AE0006865617420504C41005072657061726598
:100AF000005072656865617420414253204265640C
:100B000000507265686561742041425320456E64EF
:100B100000507265686561742041425300507265EF
:100B200070617265004261636B004E65787420638A
:100B30006F726E657200473239205031004D31308E
:100B40003920532569004D3139302053256900473C
:100B50003238004275696C6420437573746F6D2080
:100B60004D657368004265642054656D7000426590
:100B7000642054656D70004265642054656D70009A
:100B8000486F74656E642054656D7000486F7465BD
:100B90006E642054656D7000486F74656E642054F7
:100BA000656D70004275696C64204D657368002E38
:100BB0002569004732392050362043202D00496EE8
:100BC000666F2073637265656E0048656967687457
:100BD00020416D6F756E74004865696768742041C7
:100BE0006D6F756E740048656967687420416D6F3C
:100BF000756E740045646974204D65736800496EB4
:100C0000666F2073637265656E0041646A75737404
:100C1000204D657368204865696768740046696E91
:100C2000652054756E6520436C6F7365737400475F
:100C3000323920503420540046696E652054756E58
:100C40006520416C6C0047323920503420523939CC
:100C50003920540055424C20546F6F6C730047325A
:100C60003800473236204320422569204825692034
:100C7000500056616C696461746520437573746FCC
:100C80006D204D65736800496E666F2073637265F1
:100C9000656E0056616C6964617465204142532041
:100CA0004D657368004732380A4732362043204288
:100CB0003830204832353020500056616C6964610C
:100CC000746520504C41204D657368004732380AE6
:100CD00047323620432042363020483230352050CB
:100CE0000055424C20546F6F6C7300473239204AD4
:100CF0002569004C6576656C204D65736800536905
:100D0000646520506F696E74730053696465205088
:100D10006F696E7473005369646520506F696E74F7
:100D2000730055424C20546F6F6C7300496E666FB0
:100D30002073637265656E0047726964204D657348
:100D400068204C6576656C696E6700332D506F695D
:100D50006E74204C6576656C696E67004732392089
:100D60004A300055424C20546F6F6C730047323943
:100D7000205033205220432E256900496E666F2093
:100D800073637265656E004D616E75616C204669B6
:100D90006C6C2D696E00473239205032204220544D
:100DA0003000536D6172742046696C6C2D696E0061
:100DB0004732392050332054300046696C6C2D691D
:100DC0006E20416D6F756E740046696C6C2D696E96
:100DD00020416D6F756E740046696C6C2D696E20D4
:100DE000416D6F756E74004275696C64204D65735A
:100DF00068004D65736820696E76616C6964617422
:100E000065642E0A00496E76616C696461746520C0
:100E1000436C6F7365737400473239204900496E23
:100E200076616C696461746520416C6C00496E6622
:100E30006F2073637265656E00436F6E74696E75C3
:100E40006520426564204D65736800473239205043
:100E50003120430046696C6C2D696E204D657368C6
:100E6000004275696C6420436F6C64204D65736843
:100E7000004732380A473239205031004275696CD8
:100E80006420437573746F6D204D657368004275FF
:100E9000696C6420414253204D65736800473238C5
:100EA0000A4D313930205338300A4D313039205312
:100EB0003235300A4732392050310A4D3130342032
:100EC00053300A4D313430205330004275696C6420
:100ED00020504C41204D657368004732380A4D312F
:100EE0003930205336300A4D3130392053323035C5
:100EF0000A4732392050310A4D3130342053300AFC
:100F00004D3134302053300055424C20546F6F6CBB
:100F100073004D313137204D65736820256920738A
:100F2000617665640047323920532569004D3131BF
:100F300037204D657368202569206C6F6164656496
:100F400000473239204C256900536176652042659F
:100F500064204D657368004C6F61642042656420B5
:100F60004D657368004D656D6F727920536C6F74B9
:100F7000004D656D6F727920536C6F74004D656D17
:100F80006F727920536C6F74004E6F2073746F72A0
:100F900061676500556E6966696564204265642015
:100FA0004C6576656C696E6700486F6D696E672089
:100FB00058595A0047323920503420582573205947
:100FC00025732052256900202D2D2D2D2D00000088
:100FD0000C4256558F42ABAAD84200001143ABAA2F
:100FE000354356555A4300007F4356D59143AB2AAB
:100FF000A4430080B64356D5C843AB2ADB430080E8
:10100000ED4356D5FF4356150944004012440000F5
:101010000C4256558F42ABAAD84200001143ABAAEE
:10102000354356555A4300007F4356D59143AB2A6A
:10103000A4430080B64356D5C843AB2ADB430080A7
:10104000ED4356D5FF43561509440040124447323C
:1010500038004F7574707574204D657368204D614C
:1010600070004F6666205072696E7465722042612E
:10107000636B75700047323920532D31004F757402
:1010800070757420666F72204353560047323920C2
:101090005431004F757470757420666F7220486FFC
:1010A00073740047323920543000556E69666965A3
:1010B0006420426564204C6576656C696E67004DFE
:1010C000657368204C6576656C696E670045646978
:1010D00074204D6573680056616C696461746520A5
:1010E0004D657368004D616E75616C6C7920427559
:1010F000696C64204D65736800473239204939397D
:10110000390A47323920503220422054300042758B
:10111000696C64204D65736800556E696669656425
:1011200020426564204C6576656C696E67003720E7
:101130005361766520426564204D657368003620F2
:1011400046696E652054756E6520416C6C004732AF
:101150003920503420523939392054003520566115
:101160006C6964617465204D65736800342046695C
:101170006E652054756E6520416C6C0047323920D5
:1011800050342052393939205400332056616C696B
:1011900064617465204D657368003220536D61721F
:1011A000742046696C6C2D696E00473239205033CB
:1011B0002054300031204275696C6420436F6C64A8
:1011C000204D657368004732380A47323920503164
:1011D00000556E696669656420426564204C6576D9
:1011E000656C696E6700466164652048656967687B
:1011F00074004661646520486569676874004661EB
:10120000646520486569676874004F75747075740B
:101210002055424C20496E666F00473239205700F6
:1012200055424C20546F6F6C73004F757470757419
:10123000204D657368204D6170004D6573682053C3
:10124000746F72616765004D6573682045646974E9
:1012500000537465702D42792D537465702055428A
:101260004C00446561637469766174652055424C35
:101270000047323920440041637469766174652007
:1012800055424C00473239204100507265706172FE
:1012900065004D343238004D323830205030205304
:1012A00031363000424C546F7563682053656C666C
:1012B0002D54657374004D32383020503020533136
:1012C00032300050726568656174204142530050AD
:1012D00072656865617420504C4100436F6F6C64A7
:1012E0006F776E004368616E67652066696C616D3B
:1012F000656E74004368616E67652066696C616D38
:10130000656E74004D3630302042300044697361A0
:10131000626C65207374657070657273004D38344B
:101320000053657420686F6D65206F666673657421
:1013300073004C6576656C20636F726E6572730026
:10134000526573657420424C546F75636800556E26
:10135000696669656420426564204C6576656C69E0
:101360006E67004175746F20686F6D650047323895
:10137000004D6F76652061786973004D61696E007C
:101380004D6F76652058004D6F76652059004D6F82
:101390007665205A004578747275646572004D6FE9
:1013A000766520302E316D6D004D6F766520316D84
:1013B0006D004D6F76652031306D6D004D6F766537
:1013C0002061786973004578747275646572004DA8
:1013D0006F7665205A004D6F76652059004D6F7607
:1013E000652058004578747275646572004D6F769B
:1013F00065205A004D6F76652059004D6F76652047
:1014000058005072657061726500496E6974696157
:101410006C697A6520454550524F4D00436F6E749C
:10142000726F6C00526573746F7265206661696CCF
:1014300073616665004C6F61642073657474696ED6
:10144000677300496E697469616C697A6520454506
:1014500050524F4D0053746F7265207365747469F8
:101460006E677300424C546F7563680046696C6127
:101470006D656E74004D6F74696F6E0054656D70AC
:1014800065726174757265004D61696E00507265B8
:10149000686561742041425320636F6E660050722C
:1014A000656865617420504C4120636F6E66005022
:1014B00049442D44005049442D44005049442D498D
:1014C000005049442D49005049442D500050494492
:1014D0002D50005049442D5000200820466163746F
:1014E0000020082046616374002008204661637470
:1014F000002008204D6178002008204D61780020F0
:1015000008204D6178002008204D696E00200820D9
:101510004D696E002008204D696E004F6666004FD1
:101520006E20004175746F74656D700046616E20A9
:1015300073706565640046616E2073706565640054
:1015400046616E20737065656400426564004265A3
:101550006400426564004E6F7A7A6C65004E6F7A63
:101560007A6C65004E6F7A7A6C6500436F6E7472A8
:101570006F6C0053746F72652073657474696E6765
:1015800073004265640042656400426564004E6F0A
:101590007A7A6C65004E6F7A7A6C65004E6F7A7A53
:1015A0006C650046616E2073706565640046616E0F
:1015B0002073706565640046616E207370656564B4
:1015C0000054656D70657261747572650056547271
:1015D0006176206D696E005654726176206D696E79
:1015E000005654726176206D696E00566D696E000A
:1015F000566D696E00566D696E00566D61782045B6
:1016000000566D6178204500566D61782045005682
:101610006D6178205A00566D6178205A00566D61D0
:1016200078205A00566D6178205900566D617820F7
:101630005900566D6178205900566D617820580028
:10164000566D6178205800566D61782058004D6FB6
:1016500074696F6E00416D6178204500416D61785D
:10166000204500416D6178204500416D6178205A28
:1016700000416D6178205A00416D6178205A004127
:101680006D6178205900416D6178205900416D618C
:1016900078205900416D6178205800416D617820B3
:1016A0005800416D6178205800412D747261766553
:1016B0006C00412D74726176656C00412D72657409
:1016C0007261637400412D726574726163740041CC
:1016D0006363656C00416363656C004D6F74696F93
:1016E0006E0056652D6A65726B0056652D6A6572CF
:1016F0006B0056652D6A65726B00567A2D6A6572AD
:101700006B00567A2D6A65726B0056792D6A657288
:101710006B0056792D6A65726B0056792D6A657279
:101720006B0056782D6A65726B0056782D6A65726B
:101730006B0056782D6A65726B004D6F74696F6E21
:10174000004573746570732F6D6D0045737465701B
:10175000732F6D6D005A73746570732F6D6D005A21
:1017600073746570732F6D6D005973746570732F8A
:101770006D6D005973746570732F6D6D00587374BF
:101780006570732F6D6D005873746570732F6D6D78
:10179000004D6F74696F6E0053746570732F6D6DBB
:1017A000004A65726B00416363656C6572617469C0
:1017B0006F6E0056656C6F636974790050726F626A
:1017C00065205A204F66667365740050726F6265BB
:1017D000205A204F66667365740050726F626520F0
:1017E0005A204F666673657400436F6E74726F6C37
:1017F000004C6F6164206D6D004C6F6164206D6DF5
:10180000004C6F6164206D6D00556E6C6F616420DB
:101810006D6D00556E6C6F6164206D6D00556E6C62
:101820006F6164206D6D0046696C2E204469612EE5
:101830000046696C2E204469612E004F6666004F99
:101840006E20004520696E206D6D33004520696E65
:10185000206D6D3300436F6E74726F6C0043616E68
:101860006E6F7420656E7465722073756264697240
:101870003A2000022E2E00015265667265736800E0
:101880004D61696E004D37303220542564004D366D
:10189000303020423020542564004D373032203B18
:1018A0002564004D37303120542564001000AA0310
:1018B000F0013A019002220130031001D00302012D
:1018C0007004F7001005ED00B005E5005006DD00DE
:1018D000F006D7009007D1003008CC00D008C70030
:1018E0007009C300100ABE00B00ABB00500BB7005D
:1018F000F00BB300900CB000D00DAA00100FA500A3
:101900005010A00090119B00D0129600B0149000CF
:1019100090168B0070188500501A8000301C7B00D8
:10192000B01E750030216F00B023690030266400BE
:1019300010285F00902A5A00702C5500F02E4F009E
:1019400070314800B0324500F03341007036390044
:10195000103737005038330090392D00D03A270027
:10196000B03C1C00503D1700F03D1100903E0900B6
:10197000D03FE5FF627573793A20706175736564D5
:1019800020666F7220696E7075740A0062757379D3
:101990003A2070617573656420666F722075736597
:1019A000720A00627573793A2070726F636573739F
:1019B000696E670A004B494C4C45442E20004B4948
:1019C0004C4C20636175736564206279204B494CEF
:1019D0004C20627574746F6E2F70696E0A004B49EB
:1019E0004C4C45442E20004B494C4C206361757390
:1019F000656420627920746F6F206D75636820695B
:101A00006E6163746976652074696D65202D20634D
:101A1000757272656E7420636F6D6D616E643A20CD
:101A2000004D36303000506C65617365207265730F
:101A30006574005052494E5445522048414C54451B
:101A400044005072696E7465722068616C746564DC
:101A50002E206B696C6C28292063616C6C65642195
:101A60000A004D3331005344207265616420657271
:101A7000726F720A00446F6E65207072696E7469CD
:101A80006E672066696C650A004B494C4C45442ED4
:101A9000200053544F505045442E20005072696E20
:101AA0007465722073746F7070656420647565204E
:101AB000746F206572726F72732E2046697820747D
:101AC0006865206572726F7220616E64207573653F
:101AD000204D39393920746F2072657374617274C6
:101AE0002E202854656D7065726174757265206969
:101AF000732072657365742E205365742069742099
:101B000061667465722072657374617274696E6760
:101B1000290A004E6F20436865636B73756D2077EB
:101B2000697468206C696E65206E756D6265722CD3
:101B3000204C617374204C696E653A20004E6F2012
:101B4000436865636B73756D2077697468206C6991
:101B50006E65206E756D6265722C204C6173742009
:101B60004C696E653A2000636865636B73756D2020
:101B70006D69736D617463682C204C617374204CC3
:101B8000696E653A20004C696E65204E756D626520
:101B900072206973206E6F74204C617374204C69DD
:101BA0006E65204E756D6265722B312C204C617311
:101BB00074204C696E653A20004D313130000000D0
:101BC000000000000000000000000000484200008B
:101BD00048420000A041000000005761726E696E2B
:101BE000673A20486F6D696E672042756D702044BA
:101BF000697669736F72203C20310A00020204008A
:101C000000A0400000A040000000400000C84300C9
:101C100000C8430000C843FFFFFF7C3C3E5E2B3DF5
:101C20003F2F5B5D3B2C2A225C004572726F722055
:101C300077726974696E6720746F20454550524F02
:101C40004D210A00454550524F4D20646174617327
:101C5000697A65206572726F722E0A00290A002067
:101C600062797465733B20637263200053657474FA
:101C7000696E67732053746F726564202800554243
:101C80004C2053797374656D2072657365742829CF
:101C90000A00206C6F616465642066726F6D20734A
:101CA000746F726167652E0A004D65736820002E9F
:101CB0000A003F43616E277420656E61626C652087
:101CC0000020696E697469616C697A65642E0A0A1C
:101CD00000290A002062797465733B2063726320D7
:101CE000002073746F7265642073657474696E6725
:101CF00073207265747269657665642028002028F7
:101D000063616C63756C6174656429210A0020212C
:101D10003D2000454550524F4D20435243206D69B0
:101D2000736D61746368202D202873746F7265640D
:101D30002920002053697A653A2000496E6465784D
:101D40003A2000204D61726C696E3D563535290A86
:101D50000028454550524F4D3D00454550524F4D8E
:101D60002076657273696F6E206D69736D6174633F
:101D70006820004D65736820736176656420696E24
:101D800020736C6F74200020736C6F743D00206DA5
:101D900065736865735F656E643D004532454E440A
:101DA0003D004D657368206C6F61646564206672E8
:101DB0006F6D20736C6F74200048617264636F6490
:101DC00065642044656661756C742053657474693C
:101DD0006E6773204C6F616465640A00F401000053
:101DE000F401000064000000881300000000E143DB
:101DF0000000E1430000A0410000C8410000A042F3
:101E00000000A0420000C8430080CF433A0A0020EF
:101E1000286D6D290020204D3630332000205500DC
:101E20004C0046696C616D656E74206C6F61642F47
:101E3000756E6C6F6164206C656E677468733A0AC6
:101E40000020204D383531205A005A2D50726F62D3
:101E500065204F66667365740020440020490020A9
:101E6000204D3330342050002044002049002020F1
:101E70004D333031205000504944207365747469EB
:101E80006E67733A0A002046002042002048002076
:101E9000204D3134352053004D6174657269616C99
:101EA0002068656174757020706172616D6574651C
:101EB00072733A0A00206D65736865732E0A0A0012
:101EC000454550524F4D2063616E20686F6C642011
:101ED000000A416374697665204D65736820536C10
:101EE0006F743A2000205A0020204D3432302053A5
:101EF000003A0A00205A0020590020204D32303686
:101F0000205800486F6D65206F66667365743A0AE5
:101F100000204500205A002059002058002054007D
:101F200020530020204D32303520420020453C6DAA
:101F300061785F655F6A65726B3E0020583C6D6139
:101F4000785F785F6A65726B3E20593C6D61785F9F
:101F5000795F6A65726B3E205A3C6D61785F7A5F8B
:101F60006A65726B3E00416476616E6365643A2017
:101F7000423C6D696E5F7365676D656E745F746911
:101F80006D655F75733E20533C6D696E5F66656578
:101F900064726174653E20543C6D696E5F74726159
:101FA00076656C5F66656564726174653E00205499
:101FB0000020520020204D32303420500041636315
:101FC000656C65726174696F6E2028756E697473D3
:101FD0002F7332293A20503C7072696E745F6163CE
:101FE00063656C3E20523C726574726163745F611C
:101FF0006363656C3E20543C74726176656C5F610E
:102000006363656C3E0A00204500205A0020590099
:1020100020204D3230312058004D6178696D756D4A
:1020200020416363656C65726174696F6E20287509
:102030006E6974732F7332293A0A00204500205AC2
:102040000020590020204D3230332058004D617857
:10205000696D756D206665656472617465732028AD
:10206000756E6974732F73293A0A00204500205A4F
:102070000020590020204D393220580053746570DB
:10208000732070657220756E69743A0A0020204DC5
:102090003230302044300A0020204D32303020448D
:1020A000002044697361626C65640A0046696C6172
:1020B0006D656E742073657474696E67733A002081
:1020C000204D3134392043203B20556E69747320F4
:1020D000696E2043656C736975730A00202047326E
:1020E00031202020203B0020746F6F206C6F6E67C2
:1020F00020657874727573696F6E2070726576658D
:102100006E7465640A0020636F6C64206578747275
:102110007573696F6E2070726576656E7465640A9A
:102120000024F4D43050C38E20C2A24017828B709A
:1021300011127A910D816CD90AA861E108C758661D
:1021400007615143061E4B5D05C145A7041A4111A5
:1021500004093D9803713931034036DB0265339140
:1021600002D4305402802E1D02632CEE01752AC564
:1021700001B028A001102781018F2564012B244B79
:1021800001E0223401AC211F018D200D01801FFCD4
:1021900000841EED00971DDF00B81CD200E61BC6B0
:1021A00000201BBC00641AB200B219A8000A19A0D2
:1021B000006A189900D117910040178B00B516845A
:1021C0000031167E00B31579003A157300C7146FFD
:1021D0000058146A00EE1366008813630025135E2E
:1021E00000C7125B006C12570015125400C1115148
:1021F0000070114F0021114B00D61049008D10477F
:10220000004610440002104200C00F4000800F3E04
:1022100000420F3C00060F3B00CB0E3800930E37F8
:10222000005C0E3500270E3400F30D3200C10D3175
:1022300000900D3000600D2E00320D2D00050D2C8C
:1022400000D90C2B00AE0C2900850C29005C0C2752
:1022500000350C27000E0C2600E80B2400C40B24CC
:1022600000A00B23007D0B23005A0B2100390B210A
:1022700000180B2000F80A1F00D90A1E00BB0A1E16
:10228000009D0A1D00800A1D00630A1C00470A1BEE
:10229000002C0A1B00110A1A00F7091A00DD09199F
:1022A00000C4091900AB091900920917007B09182D
:1022B00000630917004C091600360916002009169C
:1022C000000A091500F5081500E0081400CC0814F0
:1022D00000B8081400A4081400900813007D081228
:1022E000006B081300580812004608120034081149
:1022F00000230811001208110001081100F0071056
:1023000000E0071000D0071000C0071000B0070F52
:1023100000A107100091070E0083070F0074070F3C
:102320000065070E0057070E0049070E003B070D1A
:10233000002E070E0020070D0013070D0006070DE5
:1023400000F9060C00ED060D00E0060C00D4060CAA
:1023500000C8060C00BC060C00B0060C00A4060B5E
:102360000099060C008D060B0082060B0077060B09
:10237000006C060B0061060A0057060B004C060AAB
:102380000042060A0038060A002E060A0024060A41
:10239000001A060A001006090007060A00FD0509D2
:1023A00000F4050900EB050900E2050900D905095B
:1023B00000D0050900C7050900BE050900B50508DC
:1023C00000AD050800A50509009C05080094050856
:1023D000008C050800840508007C050800740508C9
:1023E000006C050700650508005D05070056050837
:1023F000004E05070047050700400508003805079F
:1024000000310507002A050700230507001C050603
:1024100000160507000F050700080506000205075E
:1024200000FB040600F5040700EE040600E80406BD
:1024300000E2040700DB040600D5040600CF040612
:1024400000C9040600C3040600BD040600B7040664
:1024500000B1040500AC040600A6040600A00405B3
:10246000009B04060095040500900406008A0405FC
:102470000085040500800406007A04050075040543
:1024800000700405006B0405006604050061040586
:10249000005C04050057040500520405004D0405C6
:1024A0000048040500430405003E0404003A040506
:1024B0000035040500300404002C04050027040442
:1024C00000230405001E0404001A04040016040579
:1024D00000110404000D04040009040500040404B0
:1024E0000000040400FC030400F8030400F40304E7
:1024F00000F0030400EC030400E8030400E4030418
:1025000000E0030400DC030400D8030400D4030447
:1025100000D0030400CC030400C8030300C5030378
:102520000024F404D9201BC40C5C0E9804C4095F79
:102530000265077101F405F900FB04B30048048744
:1025400000C10369005803550003034500BE023A69
:10255000008402310053022A0029022500040220CF
:1025600000E4011C00C8011900AF01170098011414
:102570000084011300710110006101100051010E6F
:102580000043010D0036010B002B010B0020010B55
:1025900000150109000C01090003010800FB0008F7
:1025A00000F3000800EB000700E4000600DE000670
:1025B00000D8000600D2000600CC000500C70005C8
:1025C00000C2000500BD000400B9000400B500040D
:1025D00000B1000400AD000400A9000400A5000340
:1025E00000A20003009F0004009B0003009800036A
:1025F000009500020093000300900003008D00028C
:10260000008B0003008800020086000200840003A3
:1026100000810002007F0002007D0002007B0002BA
:1026200000790002007700010076000200740002C9
:102630000072000100710002006F0002006D0001D5
:10264000006C0002006A00010069000200670001DE
:1026500000660001006500010064000200620001E4
:102660000061000100600001005F0002005D0001E8
:10267000005C0001005B0001005A000100590001EC
:1026800000580001005700010056000100550001EC
:1026900000540001005300000053000100520001EB
:1026A0000051000100500001004F0001004E0000E9
:1026B000004E0001004D0001004C0001004B0000E5
:1026C000004B0001004A00010049000100480000E1
:1026D00000480001004700010046000000460001DC
:1026E00000450000004500010044000100430000D7
:1026F00000430001004200000042000100410000D0
:102700000041000100400001003F0000003F0001C7
:10271000003E0000003E0001003D0000003D0001C1
:10272000003C0000003C0000003C0001003B0000B9
:10273000003B0001003A0000003A000100390000AF
:1027400000390001003800000038000000380001A6
:10275000003700000037000100360000003600009E
:102760000036000100350000003500000035000192
:102770000034000000340000003400010033000089
:10278000003300000033000100320000003200007E
:102790000032000100310000003100000031000172
:1027A000003000000030000000300001002F000069
:1027B000002F0000002F0000002F0001002E00005D
:1027C000002E0000002E0001002D0000002D000052
:1027D000002D0000002D0001002C0000002C000046
:1027E000002C0000002C0001002B0000002B00003A
:1027F000002B0000002B0001002A0000002A00002E
:10280000002A0000002A0001002900000029000021
:102810000029000000290000002900010028000014
:102820000028000000280000002800000028000107
:1028300000270000002700000027000000270000FC
:1028400000270001002600000026000000260000EE
:1028500000260000002600010025000000250000E1
:1028600000250000002500000025000000250001D3
:1028700000240000002400000024000000240000C8
:1028800000240001002300000023000000230000BA
:1028900000230000002300000023000000230001AB
:1028A00000220000002200000022000000220000A0
:1028B0000022000000220001002100000021000091
:1028C0000021000000210000002100000021000084
:1028D0000021000100200000002000000020000076
:1028E0000020000000200000002000000020000068
:1028F00000200001001F0000001F0000001F00005A
:10290000001F0000001F0000001F0000001F00014A
:10291000001E0000001E0000001E0000001E00003F
:1029200000043700001E290000511B000058100051
:102930000010090000CC04000078020000410100F2
:10294000006265640A002C2073797374656D2073CE
:10295000746F7070656421204865617465725F49A9
:10296000443A20004265642068656174696E67209E
:102970006661696C65640048656174696E672066AC
:1029800061696C65640045312048656174696E67F2
:10299000206661696C65640048656174696E6720D2
:1029A0006661696C65640070012C0190012701B0BB
:1029B000012201C0011D01F00118011002130130B4
:1029C000020E016002090190020401C002FF000032
:1029D00003FA004003F5008003F000D003EB002071
:1029E00004E6007004E100E004DC004005D700C00C
:1029F00005D2004006CD00D006C8008007C30030D5
:102A000008BE00F008B900C009B400B00AAF00B0B9
:102A10000BAA00D00CA500000EA000500F9B00C018
:102A20001096005012910000148C00C0158700B061
:102A3000178200B0197D00D01B7800001E73004083
:102A4000206E0090226900F024640040275F00900F
:102A5000295A00E02B5500102E500020304B00105A
:102A6000324600E033410090353C001037370070AB
:102A7000383200A0392D00B03A2800A03B23006076
:102A80003C1E00103D1900903D1400103E0F0070D8
:102A90003E0A00C03E0500003F0000403FFBFF80B3
:102AA0003FF6FFC03FF1FF453120544845524D41AC
:102AB0004C2052554E4157415900424544205448FC
:102AC00045524D414C2052554E4157415900546892
:102AD00065726D616C2052756E6177617900453168
:102AE000204572723A204D415854454D5000457270
:102AF000723A204D415854454D5020424544004DB6
:102B0000415854454D502074726967676572656419
:102B1000004531204572723A204D494E54454D5082
:102B2000004572723A204D494E54454D5020424561
:102B300044004D494E54454D502074726967676595
:102B4000726564004D383420582059205A204500C1
:102B5000202F002042403A0020403A00556E69661E
:102B600069656420426564204C6576656C696E67B2
:102B700000205A00204A0020204D343231204900E4
:102B8000202047323920493939390A006163746994
:102B900076652E0A00696E002053797374656D2086
:102BA00076312E303120002020207C0A004E414E0C
:102BB0000020202E20202000207C004C43443A0A94
:102BC000004353563A0A0020666F7220003A0A0A00
:102BD000000A42656420546F706F67726170687993
:102BE000205265706F7274003F4D65736820746F7A
:102BF0006F2062696720666F7220454550524F4DC5
:102C00002E0A00446F6E652E0A003F557365203012
:102C100020746F20003F496E76616C696420737484
:102C20006F7261676520736C6F742E0A003F4545B3
:102C300050524F4D2073746F72616765206E6F74D0
:102C400020617661696C61626C652E0A00446F6E6A
:102C5000652E0A003F557365203020746F20003FB9
:102C6000496E76616C69642073746F726167652068
:102C7000736C6F742E0A003F454550524F4D2073C0
:102C8000746F72616765206E6F7420617661696C24
:102C900061626C652E0A0047323920503220666925
:102CA0006E69736865642E0A005859206F757473D5
:102CB000696465207072696E7461626C652072610E
:102CC000646975732E0A003F4572726F7220696ED7
:102CD00020427573696E6573732043617264206D61
:102CE0006561737572656D656E742E0A004D616E57
:102CF00075616C6C792070726F62696E6720756E99
:102D0000726561636861626C65206D657368206CD3
:102D10006F636174696F6E732E0A00292E0A0A00B0
:102D200050726F62696E67204D65736820506F69DD
:102D30006E747320436C6F7365737420746F2028F6
:102D4000004D65736820696E76616C6964617465B5
:102D5000642E2050726F62696E67206D6573682EF5
:102D60000A004D657368207A65726F65642E0A00EB
:102D700044656661756C742073746F726167652059
:102D8000736C6F7420302073656C65637465642E9A
:102D90000A004C6F6164696E6720746573745F70BC
:102DA00061747465726E2076616C7565732E0A0AA3
:102DB00000496E76616C696420746573745F70613C
:102DC000747465726E2076616C75652E20282D31C5
:102DD00020746F2032290A0A004C6F636174696F96
:102DE0006E7320696E76616C6964617465642E0A25
:102DF0000A00456E74697265204D65736820696EBE
:102E000076616C6964617465642E0A0A00537461AA
:102E10006E6461726420446576696174696F6E3AAC
:102E200020004D65616E204D6573682048656967B7
:102E300068743A200023206F662073616D706C65A2
:102E4000733A20000A4D657368206F6E6C792070AC
:102E500061727469616C6C7920706F70756C6174EB
:102E600065642E0A0A0020616E642074616B65201F
:102E700061206D6561737572656D656E742E0A00F3
:102E80006D6D20746869636B2E0A00427573696EFC
:102E90006573732043617264206973200052656D0D
:102EA0006F76652026206D65617375726520626599
:102EB000640052656D6F7665207368696D00506CB3
:102EC000616365207368696D2026206D6561737587
:102ED000726500506C616365207368696D20756E62
:102EE000646572206E6F7A7A6C65004D6573682038
:102EF000506F696E74204D656173757265642061F1
:102F0000743A20000A4D657368206F6E6C792070EA
:102F100061727469616C6C7920706F70756C61742A
:102F200065642E0A004D65617375726500506C61B1
:102F30006365207368696D2026206D656173757205
:102F400065004D6F76696E6720746F206E657874CA
:102F500000496E76616C6964206D617020747970CF
:102F6000652E0A0A003F2846296164652068656964
:102F700067687420666F7220426564204C657665D0
:102F80006C20436F7272656374696F6E206E6F742C
:102F900020706C61757369626C652E0A0A003F438C
:102FA000616E277420616374697661746520616E57
:102FB000642064656163746976617465206174205E
:102FC0007468652073616D652074696D652E0A0AE9
:102FD00000426F7468205820262059206C6F63616E
:102FE00074696F6E73206D757374206265207370E1
:102FF000656369666965642E0A0A003F496E7661F9
:103000006C696420677269642073697A6520284A54
:1030100029207370656369666965642028322D39DB
:10302000292E0A0A003F28502968617365207661BD
:103030006C756520696E76616C69642028302D3668
:10304000292E0A0A003F2856296572626F7365208F
:103050006C6576656C20697320696D706C61757341
:1030600069626C652028302D34292E0A0A003F2819
:103070005229657065746974696F6E20636F756E2F
:103080007420696E76616C69642028312B292E0AC0
:103090000A00446F696E6720473239002073616E01
:1030A00069747920636865636B73207061737365FD
:1030B000642E0A00202073746174653A004B696CB9
:1030C0006C2070696E206F6E203A00202000592D10
:1030D00041786973204D65736820506F696E747311
:1030E0002061743A2000202000582D417869732017
:1030F0004D65736820506F696E74732061743A2057
:10310000004D4553485F595F444953542020004DBA
:103110004553485F585F4449535420200047524963
:10312000445F4D41585F504F494E54535F592020E2
:1031300000475249445F4D41585F504F494E5453E8
:103140005F582020004D4553485F4D41585F59203E
:103150002028282828282834303029202F203229D8
:10316000202B202834303029202F203229202D20D8
:1031700028333529293C28343030293F282828286D
:1031800034303029202F203229202B202834303091
:1031900029202F203229202D2028333529293A288B
:1031A0003430302929293D004D4553485F4D415861
:1031B0005F58202028282828282834303029202F1C
:1031C000203229202B202834303029202F2032296A
:1031D000202D2028333529293C28343030293F2818
:1031E00028282834303029202F203229202B20284D
:1031F00034303029202F203229202D202833352922
:10320000293A283430302929293D004D4553485F5B
:103210004D494E5F5920202828282828283430304E
:1032200029202F203229202D202834303029202F0A
:10323000203229202B203335293E2830293F2828C9
:10324000282834303029202F203229202D202834DE
:10325000303029202F203229202B203335293A28BD
:10326000302929293D004D4553485F4D494E5F584F
:10327000202028282828282834303029202F2032C0
:1032800029202D202834303029202F203229202BAE
:10329000203335293E2830293F282828283430304B
:1032A00029202F203229202D202834303029202F8A
:1032B000203229202B203335293A28302929293D4D
:1032C000007A70726F62655F7A6F66667365743AD2
:1032D0002000706C616E6E65722E7A5F6661646547
:1032E0005F686569676874203A200055424C206F1A
:1032F000626A65637420636F756E743A2000204CB7
:103300006F616465642E004D65736820004E6F2008
:103310004D657368204C6F616465642E0070012CEC
:103320000190012701B0012201C0011D01F0011827
:10333000011002130130020E016002090190020423
:1033400001C002FF000003FA004003F5008003F013
:1033500000D003EB002004E6007004E100E004DC90
:10336000004005D700C005D2004006CD00D006C8F9
:10337000008007C3003008BE00F008B900C009B4DF
:1033800000B00AAF00B00BAA00D00CA500000EA040
:1033900000500F9B00C01096005012910000148C3A
:1033A00000C0158700B0178200B0197D00D01B78CF
:1033B00000001E730040206E0090226900F024641B
:1033C0000040275F0090295A00E02B5500102E5036
:1033D0000020304B0010324600E033410090353C75
:1033E000001037370070383200A0392D00B03A286D
:1033F00000A03B2300603C1E00103D1900903D14CE
:1034000000103E0F00703E0A00C03E0500003F0065
:1034100000403FFBFF803FF6FFC03FF1FF1000AAD6
:1034200003F0013A019002220130031001D003029F
:10343000017004F7001005ED00B005E5005006DD51
:1034400000F006D7009007D1003008CC00D008C7A4
:10345000007009C300100ABE00B00ABB00500BB7D1
:1034600000F00BB300900CB000D00DAA00100FA517
:10347000005010A00090119B00D0129600B0149044
:103480000090168B0070188500501A8000301C7B4D
:1034900000B01E750030216F00B023690030266433
:1034A0000010285F00902A5A00702C5500F02E4F13
:1034B0000070314800B0324500F0334100703639B9
:1034C00000103737005038330090392D00D03A279C
:1034D00000B03C1C00503D1700F03D1100903E092B
:1034E00000D03FE5FF24F404D9201BC40C5C0E98E7
:1034F00004C4095F0265077101F405F900FB04B318
:103500000048048700C103690058035500030345C0
:1035100000BE023A008402310053022A002902252B
:103520000004022000E4011C00C8011900AF0117CB
:103530000098011400840113007101100061011052
:103540000051010E0043010D0036010B002B010B51
:103550000020010B00150109000C010900030108FE
:1035600000FB000800F3000800EB000700E4000681
:1035700000DE000600D8000600D2000600CC0005E0
:1035800000C7000500C2000500BD000400B900042A
:1035900000B5000400B1000400AD000400A900045F
:1035A00000A5000300A20003009F0004009B00038D
:1035B00000980003009500020093000300900003B0
:1035C000008D0002008B00030088000200860002CC
:1035D0000084000300810002007F0002007D0002E1
:1035E000007B0002007900020077000100760002F3
:1035F000007400020072000100710002006F0002FE
:10360000006D0001006C0002006A00010069000208
:10361000006700010066000100650001006400020F
:10362000006200010061000100600001005F000213
:10363000005D0001005C0001005B0001005A000118
:103640000059000100580001005700010056000118
:103650000055000100540001005300000053000118
:10366000005200010051000100500001004F000114
:10367000004E0000004E0001004D0001004C000112
:10368000004B0000004B0001004A0001004900010E
:10369000004800000048000100470001004600000B
:1036A0000046000100450000004500010044000103
:1036B00000430000004300010042000000420001FE
:1036C000004100000041000100400001003F0000F7
:1036D000003F0001003E0000003E0001003D0000F0
:1036E000003D0001003C0000003C0000003C0001E7
:1036F000003B0000003B0001003A0000003A0001DE
:1037000000390000003900010038000000380000D6
:1037100000380001003700000037000100360000CB
:1037200000360000003600010035000000350000C2
:1037300000350001003400000034000000340001B6
:1037400000330000003300000033000100320000AD
:1037500000320000003200010031000000310000A2
:103760000031000100300000003000000030000196
:10377000002F0000002F0000002F0000002F00018C
:10378000002E0000002E0000002E0001002D000081
:10379000002D0000002D0000002D0001002C000075
:1037A000002C0000002C0000002C0001002B000069
:1037B000002B0000002B0000002B0001002A00005D
:1037C000002A0000002A0000002A00010029000051
:1037D0000029000000290000002900000029000144
:1037E0000028000000280000002800000028000039
:1037F000002800010027000000270000002700002B
:10380000002700000027000100260000002600001D
:103810000026000000260000002600010025000010
:103820000025000000250000002500000025000004
:1038300000250001002400000024000000240000F6
:1038400000240000002400010023000000230000E9
:1038500000230000002300000023000000230000DC
:1038600000230001002200000022000000220000CE
:1038700000220000002200000022000100210000C0
:1038800000210000002100000021000000210000B4
:1038900000210000002100010020000000200000A5
:1038A0000020000000200000002000000020000098
:1038B0000020000000200001001F0000001F000089
:1038C000001F0000001F0000001F0000001F00007C
:1038D000001F0001001E0000001E0000001E00006E
:1038E000001E00000024F4D43050C38E20C2A24039
:1038F00017828B7011127A910D816CD90AA861E13F
:1039000008C7586607615143061E4B5D05C145A7B0
:10391000041A411104093D9803713931034036DB23
:103920000265339102D4305402802E1D02632CEEC6
:1039300001752AC501B028A001102781018F2564D7
:10394000012B244B01E0223401AC211F018D200DFD
:1039500001801FFC00841EED00971DDF00B81CD203
:1039600000E61BC600201BBC00641AB200B219A8F6
:10397000000A19A0006A189900D117910040178B0E
:1039800000B516840031167E00B31579003A157320
:1039900000C7146F0058146A00EE136600881363A2
:1039A0000025135E00C7125B006C125700151254FD
:1039B00000C111510070114F0021114B00D6104968
:1039C000008D1047004610440002104200C00F4016
:1039D00000800F3E00420F3C00060F3B00CB0E382C
:1039E00000930E37005C0E3500270E3400F30D32C5
:1039F00000C10D3100900D3000600D2E00320D2DF4
:103A000000050D2C00D90C2B00AE0C2900850C29CB
:103A1000005C0C2700350C27000E0C2600E80B2458
:103A200000C40B2400A00B23007D0B23005A0B21A4
:103A300000390B2100180B2000F80A1F00D90A1EBC
:103A400000BB0A1E009D0A1D00800A1D00630A1C9F
:103A500000470A1B002C0A1B00110A1A00F7091A5A
:103A600000DD091900C4091900AB091900920917F2
:103A7000007B091800630917004C09160036091667
:103A800000200916000A091500F5081500E00814C1
:103A900000CC081400B8081400A4081400900813FF
:103AA000007D0812006B0813005808120046081227
:103AB0000034081100230811001208110001081138
:103AC00000F0071000E0071000D0071000C007103A
:103AD00000B0070F00A107100091070E0083070F29
:103AE0000074070F0065070E0057070E0049070E08
:103AF000003B070D002E070E0020070D0013070DD9
:103B00000006070D00F9060C00ED060D00E0060C9E
:103B100000D4060C00C8060C00BC060C00B0060C55
:103B200000A4060B0099060C008D060B0082060B04
:103B30000077060B006C060B0061060A0057060BA7
:103B4000004C060A0042060A0038060A002E060A41
:103B50000024060A001A060A001006090007060AD1
:103B600000FD050900F4050900EB050900E205095F
:103B700000D9050900D0050900C7050900BE0509DF
:103B800000B5050800AD050800A50509009C05085D
:103B900000940508008C050800840508007C0508D1
:103BA00000740508006C050700650508005D050741
:103BB00000560508004E05070047050700400508A8
:103BC0000038050700310507002A0507002305070F
:103BD000001C050600160507000F0507000805066E
:103BE0000002050700FB040600F5040700EE0406CA
:103BF00000E8040600E2040700DB040600D5040622
:103C000000CF040600C9040600C3040600BD040674
:103C100000B7040600B1040500AC040600A60406C3
:103C200000A00405009B040600950405009004060E
:103C3000008A04050085040500800406007A040556
:103C40000075040500700405006B0405006604059A
:103C500000610405005C04050057040500520405DA
:103C6000004D04050048040500430405003E04041B
:103C7000003A04050035040500300404002C040556
:103C80000027040400230405001E0404001A040491
:103C90000016040500110404000D040400090405C5
:103CA000000404040000040400FC030400F80304FE
:103CB00000F4030400F0030400EC030400E8030430
:103CC00000E4030400E0030400DC030400D8030460
:103CD00000D4030400D0030400CC030400C8030391
:103CE00000C50303000A4D657368206F6E6C792070
:103CF0007061727469616C6C7920706F70756C6141
:103D00007465642E0A0024F404D9201BC40C5C0ED4
:103D10009804C4095F0265077101F405F900FB040A
:103D2000B30048048700C10369005803550003032A
:103D30004500BE023A008402310053022A002902E3
:103D4000250004022000E4011C00C8011900AF0195
:103D50001700980114008401130071011000610123
:103D6000100051010E0043010D0036010B002B0124
:103D70000B0020010B00150109000C0109000301D3
:103D80000800FB000800F3000800EB000700E40057
:103D90000600DE000600D8000600D2000600CC00B7
:103DA0000500C7000500C2000500BD000400B90001
:103DB0000400B5000400B1000400AD000400A90037
:103DC0000400A5000300A20003009F0004009B0064
:103DD0000300980003009500020093000300900088
:103DE00003008D0002008B000300880002008600A3
:103DF000020084000300810002007F0002007D00B9
:103E000002007B00020079000200770001007600CA
:103E100002007400020072000100710002006F00D5
:103E200002006D0001006C0002006A0001006900E0
:103E300002006700010066000100650001006400E7
:103E400002006200010061000100600001005F00EB
:103E500002005D0001005C0001005B0001005A00EF
:103E600001005900010058000100570001005600F0
:103E700001005500010054000100530000005300F0
:103E800001005200010051000100500001004F00EC
:103E900001004E0000004E0001004D0001004C00EA
:103EA00001004B0000004B0001004A0001004900E6
:103EB00001004800000048000100470001004600E2
:103EC00000004600010045000000450001004400DC
:103ED00001004300000043000100420000004200D6
:103EE00001004100000041000100400001003F00CE
:103EF00000003F0001003E0000003E0001003D00C8
:103F000000003D0001003C0000003C0000003C00BF
:103F100001003B0000003B0001003A0000003A00B5
:103F200001003900000039000100380000003800AD
:103F300000003800010037000000370001003600A3
:103F4000000036000000360001003500000035009A
:103F5000000035000100340000003400000034008F
:103F60000100330000003300000033000100320084
:103F7000000032000000320001003100000031007A
:103F8000000031000100300000003000000030006F
:103F900001002F0000002F0000002F0000002F0064
:103FA00001002E0000002E0000002E0001002D0058
:103FB00000002D0000002D0000002D0001002C004D
:103FC00000002C0000002C0000002C0001002B0041
:103FD00000002B0000002B0000002B0001002A0035
:103FE00000002A0000002A0000002A000100290029
:103FF000000029000000290000002900000029001D
:10400000010028000000280000002800000028000F
:104010000000280001002700000027000000270002
:1040200000002700000027000100260000002600F5
:1040300000002600000026000000260001002500E8
:1040400000002500000025000000250000002500DC
:1040500000002500010024000000240000002400CE
:1040600000002400000024000100230000002300C1
:1040700000002300000023000000230000002300B4
:1040800000002300010022000000220000002200A6
:104090000000220000002200000022000100210098
:1040A000000021000000210000002100000021008C
:1040B000000021000000210001002000000020007D
:1040C0000000200000002000000020000000200070
:1040D000000020000000200001001F0000001F0061
:1040E00000001F0000001F0000001F0000001F0054
:1040F00000001F0001001E0000001E0000001E0046
:1041000000001E00000024F4D43050C38E20C2A250
:104110004017828B7011127A910D816CD90AA861B7
:10412000E108C7586607615143061E4B5D05C1454E
:10413000A7041A411104093D98037139310340362F
:10414000DB0265339102D4305402802E1D02632CB1
:10415000EE01752AC501B028A001102781018F2525
:1041600064012B244B01E0223401AC211F018D207E
:104170000D01801FFC00841EED00971DDF00B81CA0
:10418000D200E61BC600201BBC00641AB200B219A4
:10419000A8000A19A0006A189900D11791004017C9
:1041A0008B00B516840031167E00B31579003A15E0
:1041B0007300C7146F0058146A00EE13660088136A
:1041C000630025135E00C7125B006C1257001512C6
:1041D0005400C111510070114F0021114B00D61035
:1041E00049008D1047004610440002104200C00FE5
:1041F0004000800F3E00420F3C00060F3B00CB0EFC
:104200003800930E37005C0E3500270E3400F30D96
:104210003200C10D3100900D3000600D2E00320DC6
:104220002D00050D2C00D90C2B00AE0C2900850C9F
:1042300029005C0C2700350C27000E0C2600E80B2B
:104240002400C40B2400A00B23007D0B23005A0B79
:104250002100390B2100180B2000F80A1F00D90A91
:104260001E00BB0A1E009D0A1D00800A1D00630A75
:104270001C00470A1B002C0A1B00110A1A00F70930
:104280001A00DD091900C4091900AB0919009209C7
:1042900017007B091800630917004C09160036093E
:1042A0001600200916000A091500F5081500E00897
:1042B0001400CC081400B8081400A40814009008D6
:1042C00013007D0812006B081300580812004608FE
:1042D000120034081100230811001208110001080F
:1042E0001100F0071000E0071000D0071000C00711
:1042F0001000B0070F00A107100091070E00830700
:104300000F0074070F0065070E0057070E004907DE
:104310000E003B070D002E070E0020070D001307AF
:104320000D0006070D00F9060C00ED060D00E00675
:104330000C00D4060C00C8060C00BC060C00B0062D
:104340000C00A4060B0099060C008D060B008206DB
:104350000B0077060B006C060B0061060A0057067F
:104360000B004C060A0042060A0038060A002E0618
:104370000A0024060A001A060A00100609000706A9
:104380000A00FD050900F4050900EB050900E20536
:104390000900D9050900D0050900C7050900BE05B7
:1043A0000900B5050800AD050800A50509009C0534
:1043B0000800940508008C050800840508007C05A9
:1043C0000800740508006C050700650508005D0518
:1043D0000700560508004E05070047050700400581
:1043E000080038050700310507002A0507002305E6
:1043F00007001C050600160507000F050700080545
:10440000060002050700FB040600F5040700EE04A1
:104410000600E8040600E2040700DB040600D504F9
:104420000600CF040600C9040600C3040600BD044C
:104430000600B7040600B1040500AC040600A6049B
:104440000600A00405009B040600950405009004E6
:1044500006008A04050085040500800406007A042D
:10446000050075040500700405006B040500660472
:104470000500610405005C040500570405005204B2
:1044800005004D04050048040500430405003E04F2
:1044900004003A04050035040500300404002C042F
:1044A000050027040400230405001E0404001A0468
:1044B000040016040500110404000D04040009049E
:1044C00005000404040000040400FC030400F803D5
:1044D0000400F4030400F0030400EC030400E80308
:1044E0000400E4030400E0030400DC030400D80338
:1044F0000400D4030400D0030400CC030400C80368
:104500000300C50303005374617274206F66207545
:10451000626C2E6C696E655F746F5F64657374693D
:104520006E6174696F6E5F63617274657369616EE9
:104530002829006F7574206F6620626F756E647332
:1045400020696E2075626C2E6C696E655F746F5F9A
:1045500064657374696E6174696F6E5F63617274B0
:10456000657369616E28290046494E414C5F4D4F85
:10457000564520696E2075626C2E6C696E655F749D
:104580006F5F64657374696E6174696F6E5F636198
:104590007274657369616E28290076657274696347
:1045A000616C206D6F766520646F6E6520696E208A
:1045B00075626C2E6C696E655F746F5F6465737491
:1045C000696E6174696F6E5F63617274657369614E
:1045D0006E282900686F72697A6F6E74616C206D45
:1045E0006F766520646F6E6520696E2075626C2E33
:1045F0006C696E655F746F5F64657374696E617416
:10460000696F6E5F63617274657369616E282900FA
:1046100067656E65726963206D6F766520646F6E85
:104620006520696E2075626C2E6C696E655F746FB3
:104630005F64657374696E6174696F6E5F636172E4
:1046400074657369616E2829004D6F76696E672EF7
:104650002E2E005A2D4F66667365743A200047323D
:1046600038004175746F20686F6D65004175746F17
:1046700074656D70005049442D49005049442D44E3
:1046800000416363656C00412D72657472616374EF
:1046900000412D74726176656C00567A2D6A6572E0
:1046A0006B005873746570732F6D6D00597374656A
:1046B00070732F6D6D005A73746570732F6D6D007C
:1046C0004573746570732F6D6D0046696C2E2044C0
:1046D00069612E005072696E742066726F6D20538E
:1046E00044005072696E742066726F6D20534400EE
:1046F0004368616E67652066696C616D656E740004
:10470000434F4D4D554E49434154494F4E0044523D
:104710005952554E004552524F525300494E464F42
:10472000004543484F00696E206D6F76655F746F7A
:10473000282920666565645F76616C756520666F03
:10474000722058593A004C656176696E672047328D
:1047500036004732362048656174696E67204E6FB7
:104760007A7A6C652E004732362048656174696E2E
:1047700067204265642E00446F6E65205072696D3B
:10478000696E6700557365722D436F6E74726F6C3E
:104790006C6564205072696D6500466978656420B7
:1047A0004C656E677468205072696D652E004D65AA
:1047B00073682056616C69646174696F6E2053740C
:1047C0006F707065642E002C2065793D0029202DC6
:1047D0003E202865783D002C2073793D0020436FF2
:1047E0006E6E656374696E6720776974682076659C
:1047F00072746963616C206C696E65202873783D02
:10480000002C2065793D0029202D3E202865783D2B
:10481000002C2073793D0020436F6E6E65637469D0
:104820006E67207769746820686F72697A6F6E743A
:10483000616C206C696E65202873783D004C656161
:1048400076696E6720473236003F5370656369664C
:1048500069656420582C5920636F6F7264696E61BA
:104860007465206F7574206F6620626F756E647357
:104870002E0A003F28522965706561742076616CAC
:104880007565206E6F7420706C61757369626C65FC
:104890003B206D757374206265206174206C6561C6
:1048A000737420312E0A003F537065636966696531
:1048B00064206E6F7A7A6C652074656D70657261C4
:1048C00074757265206E6F7420706C6175736962A7
:1048D0006C652E0A003F53706563696669656420E4
:1048E00066696C616D656E742073697A65206E6FA0
:1048F0007420706C61757369626C652E0A003F5399
:104900007065636966696564207072696D65206CA5
:10491000656E677468206E6F7420706C6175736962
:10492000626C652E0A003F53706563696669656451
:10493000206E6F7A7A6C652073697A65206E6F7469
:1049400020706C61757369626C652E0A003F526558
:104950007472616374696F6E204D756C7469706CEC
:10496000696572206D75737420626520737065636C
:1049700069666965642E0A003F53706563696669FC
:1049800065642052657472616374696F6E204D7541
:104990006C7469706C696572206E6F7420706C61E4
:1049A000757369626C652E0A003F537065636966B2
:1049B000696564206C6179657220686569676874EF
:1049C000206E6F7420706C61757369626C652E0A5D
:1049D000003F5370656369666965642062656420A1
:1049E00074656D7065726174757265206E6F742088
:1049F000706C61757369626C65202834302D3134B8
:104A00003043292E0A0047323620636F6D6D616E88
:104A10006420737461727465642E205761697469CF
:104A20006E6720666F7220686561746572287329ED
:104A30002E0A00656E7175657565696E67202200C6
:104A400020496E76616C696420657874727564655E
:104A500072200000000000000000000000000000C4
:104A600000C8430000C8430000C843486F6D65207C
:104A70002573257325732066697273740020666937
:104A80007273740A005A0059005800486F6D65200F
:104A90000050726F62696E67206661696C65640AB6
:104AA0000050726F62696E67206661696C656400B0
:104AB000205A3A200020593A200042656420583A92
:104AC0002000486F6D696E67206661696C656400DF
:104AD000486F6D652058592066697273740A0048E2
:104AE0006F6D652058592066697273740050726F3B
:104AF0007465637465642050696E0A0020573A003B
:104B00004520436F6F6C696E672E2E2E004520483E
:104B1000656174696E672E2E2E0020573A0042653B
:104B20006420636F6F6C696E672E2E2E0042656481
:104B30002068656174696E672E2E2E00205A3A0037
:104B400020593A0020436F756E7420583A00204572
:104B50003A00205A3A0020593A00583A003A0043A5
:104B600061703A004B64200023646566696E6520BD
:104B700044454641554C545F004B69200023646511
:104B800066696E652044454641554C545F004B7044
:104B9000200023646566696E652044454641554C96
:104BA000545F00504944204175746F74756E6520E0
:104BB00066696E6973686564212050757420746835
:104BC00065206C617374204B702C204B6920616EE2
:104BD00064204B6420636F6E7374616E747320661F
:104BE000726F6D2062656C6F7720696E746F204301
:104BF0006F6E66696775726174696F6E2E680A0000
:104C0000504944204175746F74756E652066616902
:104C10006C6564212074696D656F75740A00453197
:104C200020544845524D414C2052554E4157415910
:104C30000042454420544845524D414C2052554E67
:104C40004157415900546865726D616C2052756E10
:104C5000617761790045312048656174696E67202C
:104C60006661696C656400426564206865617469A9
:104C70006E67206661696C65640048656174696E81
:104C800067206661696C6564005049442041757411
:104C90006F74756E65206661696C6564212054656A
:104CA0006D706572617475726520746F6F206869CC
:104CB00067680A00204B643A2000204B693A2000C4
:104CC000204B703A20000A20436C617373696320A3
:104CD000504944200A002054753A2000204B753A70
:104CE0002000206D61783A2000206D696E3A200026
:104CF00020643A200020626961733A2000504944E0
:104D0000204175746F74756E652073746172740AD6
:104D100000504944204175746F74756E652066615A
:104D2000696C6564212042616420657874727564E1
:104D30006572206E756D6265720A004F66660A00C4
:104D4000466164652048656967687420004265644F
:104D5000204C6576656C696E6720004661696C65FC
:104D60006420746F20656E61626C6520426564200A
:104D70004C6576656C696E670A0076616C69640AD9
:104D800053746F7261676520736C6F743A200069A9
:104D90006E004D65736820697320003F5573652070
:104DA0003020746F20003F496E76616C6964207317
:104DB000746F7261676520736C6F742E0A004D65A5
:104DC000736820706F696E742063616E6E6F7420FB
:104DD0006265207265736F6C7665640A004D3432CB
:104DE0003120696E636F72726563742070617261E5
:104DF0006D657465722075736167650A004D3630A4
:104E0000303A20546F6F20636F6C6400486F746594
:104E10006E6420746F6F20636F6C640A00496E7358
:104E20006572742066696C616D656E7420616E6474
:104E300020707265737320627574746F6E0A00500F
:104E40007265737320627574746F6E20746F20685E
:104E5000656174206E6F7A7A6C650A00496E7365BD
:104E600072742066696C616D656E7420616E642079
:104E7000707265737320627574746F6E20286F7220
:104E8000204D313038290A00496E736572742066EE
:104E9000696C616D656E7420616E642070726573FB
:104EA0007320627574746F6E20286F72204D3130DC
:104EB00038290A00536C6565702E2E2E00205A3A50
:104EC000200020593A200042656420583A20004DC5
:104ED00065736820706F696E742063616E6E6F74A5
:104EE000206265207265736F6C7665640A00436C9E
:104EF00069636B20746F20726573756D652E2E2E3D
:104F0000004E6F206D6F76652E00456E64206669D9
:104F10006C65206C6973740A00426567696E20666F
:104F2000696C65206C6973740A00286E6F2066696D
:104F30006C65290043757272656E742066696C65D4
:104F40003A20005344207072696E74696E67206263
:104F500079746520004E6F74205344207072696E1E
:104F600074696E670A002569730025696D202569DB
:104F700073002569682025696D20256973002569FE
:104F800064202569682025696D20256973002569DD
:104F90007920256964202569682025696D202569A7
:104FA00073005072696E742074696D653A20006FE9
:104FB0006E2E0A006F66662E0A0047323620446560
:104FC00062756720006F66660021471C4715470E13
:104FD00047004744454255473A004B494C4C4544ED
:104FE0002E20004D3131332053006F6B004152545D
:104FF00045464143542055524241494E2043523187
:10500000307334204F66662E00544845524D414C53
:105010005F50524F54454354494F4E004155544FF1
:105020005245504F52545F53445F5354415455536B
:1050300000454D455247454E43595F5041525345F7
:105040005200434153455F4C494748545F425249DF
:105050004748544E45535300544F47474C455F4CC7
:10506000494748545300534F4654574152455F50A7
:105070004F574552004255494C445F5045524345B5
:105080004E54004C4556454C494E475F44415441AF
:10509000005A5F50524F4245004155544F4C4556BF
:1050A000454C005052494E545F4A4F420050524FB7
:1050B0004752455353004155544F5245504F525457
:1050C0005F54454D5000564F4C554D455452494341
:1050D00000454550524F4D0053455249414C5F5891
:1050E0004F4E5F584F4646004649524D5741524534
:1050F0005F4E414D453A4D61726C696E20312E31E3
:105100002E3920284769746875622920534F5552FB
:1051100043455F434F44455F55524C3A6874747041
:10512000733A2F2F6769746875622E636F6D2F4D08
:1051300061726C696E4669726D776172652F4D613F
:10514000726C696E2050524F544F434F4C5F56451E
:105150005253494F4E3A312E30204D414348494E2B
:10516000455F545950453A415254454641435420B5
:1051700055524241494E20435231307334204558F4
:105180005452554445525F434F554E543A31205581
:105190005549443A63656465326132662D34316144
:1051A000322D343734382D396231322D6335356341
:1051B00036326633363766660A002F2F200066695E
:1051C0006C616D656E743A20007A5F6D696E3A208D
:1051D00000795F6D696E3A2000785F6D696E3A20E4
:1051E000005265706F7274696E6720656E647374C7
:1051F0006F70207374617475730A004D31343520FB
:10520000533C696E6465783E206F7574206F66202C
:1052100072616E67652028302D31290A0020540004
:10522000205200416363656C65726174696F6E3A08
:105230002050005741524E494E4721204C6F772055
:105240005A204A65726B206D6179206C656164201B
:10525000746F20756E77616E74656420706175730C
:1052600065732E0A004F66667365747320617070F3
:105270006C696564004572723A20546F6F206661F4
:10528000722100546F6F206661722066726F6D200C
:105290007265666572656E636520706F696E740A0B
:1052A00000205A00205900580020204D61783A20F3
:1052B00000205A00205900580020204D696E3A20E5
:1052C000004F6E20004F666600536F667420656E57
:1052D0006473746F70733A200020466C6F773A20C5
:1052E00000000136372603FFFFFF353C3D380EFF37
:1052F000FFFF312E303E12FFFFFFFF28FF0C080991
:10530000FFFFFF1A1C18FFFF2A08440AFF43206F03
:105310007574206F662072616E67650A005365724E
:10532000766F20003A200020536572766F20004986
:105330006E76616C69642065787472756465720A52
:105340000020643A0020693A0020703A0043290A9C
:105350000061626C656420286D696E2074656D70F3
:105360002000436F6C6420657874727564657320E7
:10537000617265200020643A0020693A0020703A8A
:10538000004E6F2063617365206C696768740A0062
:10539000454550524F4D204F4B0A003F5A206F75E4
:1053A00074206F662072616E676520282D32302070
:1053B000746F203230290A003A200050726F626503
:1053C000205A204F66667365740041637469766580
:1053D0002045787472756465723A2000496E766172
:1053E0006C69642065787472756465720A00526530
:1053F00073656E643A20006F6B002C2065653D007C
:105400002C207A653D002C2079653D002075626C6A
:105410002E6C696E655F746F5F64657374696E612D
:1054200074696F6E5F63617274657369616E287809
:10543000653D0020746F6F206C6F6E672065787417
:10544000727573696F6E2070726576656E746564CF
:105450000A0020636F6C6420657874727573696FDD
:105460006E2070726576656E7465640A00436861CB
:105470006E67652066696C616D656E7400556E6C53
:105480006F61642066696C616D656E74004C6F615C
:10549000642066696C616D656E7400507265686544
:1054A00061742041425300507265686561742050F8
:1054B0004C41004368616E67652066696C616D658B
:1054C0006E74005052494E5420504155534544008B
:1054D000554E4C4F41442046494C414D454E540099
:1054E0004C4F41442046494C414D454E5400507567
:1054F000726765206D6F726500436F6E74696E75BB
:105500006500524553554D45204F5054494F4E5319
:105510003A0020204E6F7A7A6C653A200063686109
:105520006E6765006F66207468652066696C616DE2
:10553000656E74005761697420666F7220737461C0
:1055400072740020204E6F7A7A6C653A2000200039
:1055500066696C616D656E7420756E6C6F61640058
:105560005761697420666F720020204E6F7A7A6CE2
:10557000653A20002000506C656173652077616991
:10558000742E2E2E0048656174696E67206E6F7AE6
:105590007A6C650020204E6F7A7A6C653A20002084
:1055A0000068656174206E6F7A7A6C652E005072A7
:1055B00065737320627574746F6E20746F002020A1
:1055C0004E6F7A7A6C653A2000746F20636F6E7448
:1055D000696E75652E2E2E00616E64207072657383
:1055E0007320627574746F6E00496E7365727420F7
:1055F00066696C616D656E740020204E6F7A7A6CFE
:10560000653A2000200066696C616D656E74206CDF
:105610006F6164005761697420666F720020204ECC
:105620006F7A7A6C653A2000200066696C616D655E
:105630006E74207075726765005761697420666FBB
:105640007200746F20726573756D650057616974BF
:1056500020666F72207072696E7400000021002451
:105660000027002A002D0030003300010100000453
:105670000107010A0100002200250028002B002E4E
:10568000003100340002010000050108010B010097
:105690000020002300260029002C002F00320000EB
:1056A00001000003010601090105050505070508BC
:1056B000080808020202020A0A0808040404040195
:1056C00001010101010101030303030303030304B7
:1056D0000707070C0C0C0C0C0C0C0C020202020647
:1056E000060606060606060B0B0B0B0B0B0B0B0137
:1056F00002102020080810204010204080020102E3
:1057000001080402010102040810204080804020AA
:1057100010080402018004020180402010080402E5
:105720000108040201010204081020408001020463
:10573000081020408000000A0B02090C0D0E08071B
:105740000304010000000000000000000000000051
:105750000000000000000000000000000000000049
:105760000012111000000000000000000000000006
:105770000000000000000000000000021FFFFFFF0B
:10578000FFFFFF600000000001FF4000000000007C
:10579000FF8000000000007F83CF00000C303F87B7
:1057A000FF80000C301F867980000C000F8C30C702
:1057B000838C30E78C30CFC7CC31F38C30DCECEC11
:1057C00033B98C30D86C6C33198C30D06C0C3319E5
:1057D0008C30D86C0C33198C30DC6C0E3B198C304F
:1057E000CF7C079F198C30C77C038F1940000000C5
:1057F000000002600000000000061FFFFFFFFFFF27
:10580000F8494E56414C49442044415441004D32E0
:10581000342053256C642054256C64004D323320B1
:105820002573004739322E30205A257320452573C1
:10583000004D34323020532569205A2573004732F9
:105840003820523020582059004731205A32004722
:1058500039322E30205A30004D343230205330202F
:105860005A30002020506C616E6E6572427566661B
:10587000657242797465733A20002046726565202E
:105880004D656D6F72793A2000436F6D70696C657C
:10589000643A204A616E20203920323032300A00CA
:1058A000207C20417574686F723A20286E6F6E6597
:1058B0002C2064656661756C7420636F6E66696721
:1058C000290A00323031382D30372D333100204C49
:1058D00061737420557064617465643A2000312EE0
:1058E000312E390A004D61726C696E0020536F666B
:1058F00074776172652052657365740A0020576180
:10590000746368646F672052657365740A0020428F
:10591000726F776E206F75742052657365740A001C
:105920002045787465726E616C2052657365740AE7
:1059300000506F77657255700A0073746172740A53
:10594000006175746F25692E67006572726F722031
:1059500077726974696E6720746F2066696C650A76
:1059600000456E6473746F70732025632025632077
:10597000256320256300205A3A0020593A00205818
:105980003A00656E6473746F7073206869743A20AE
:1059900000446F6E6520736176696E672066696C7E
:1059A000652E0A004D3239004D3234004D3233201D
:1059B000257300556E6B6E6F776E20636F6D6D6132
:1059C0006E643A202200486F74656E6420746F6FB5
:1059D00020636F6C640A0057726974696E67207483
:1059E0006F2066696C653A20006F70656E20666195
:1059F000696C65642C2046696C653A200053544FED
:105A0000505045442E20005072696E7465722073A8
:105A1000746F707065642064756520746F206572A2
:105A2000726F72732E2046697820746865206572E3
:105A3000726F7220616E6420757365204D3939393B
:105A400020746F20726573746172742E20285465FF
:105A50006D7065726174757265206973207265730B
:105A600065742E20536574206974206166746572B4
:105A70002072657374617274696E67290A005354E9
:105A80004F502063616C6C6564206265636175735F
:105A900065206F6620424C546F7563682065727292
:105AA0006F72202D2072657374617274207769742F
:105AB00068204D3939390A00206D65736820736C90
:105AC0006F747320617661696C61626C652E0A0087
:105AD0003F496E76616C696420736C6F742E0A00A6
